:020000040000fa
:080000000002040000000000f2
:020000040000fa
:100400008fd42100007f240000018800000000003c
:100410000c000700a02c22000100200011000700a2
:10042000000020000000e000020032000000020096
:1004300000000000661f0200000000000040da001b
:100440000000fe004440a900e00c20000000e00095
:100450000300320000002000a00188004440a800f2
:100460000000060091018800800078000000eb0089
:1004700015003700e280400032a0b4009101ba00bc
:10048000e280400032a0b4009102ba00e280400055
:1004900032a0b4000002eb00472bde00f507b200eb
:1004a000602ce10004003a000059eb008301e900f0
:1004b000fdff3e00040037006128e100010032002a
:1004c0000082eb00040007001101ba000200e00006
:1004d000e8ff3a00000006003159ba008301e90044
:1004e0000c0032002159ba008301e90008003200f3
:1004f0000400e00003003a00e280400032a0b400b3
:10050000f5ff370011d9ba008301e900faff3a007c
:100510008100e800e180400032a0b4000000060045
:1005200000000000000000000000000000000000cb
:1005300000000000000000000000000000000000bb
:1005400000000000000000000000000000000000ab
:10055000000000000000000000000000000000009b
:10056000000000000000000000000000000000008b
:10057000000000000000000000000000000000007b
:1005800000000000000000008001eb0002003700c6
:1005900061f079008301e800828f5100fcff3a008e
:1005a0000000060000037800800178000002eb00e4
:1005b000010037008059780084025100820f5200f8
:1005c0000900320064c078000402e8000004e00082
:1005d000f8ff3a00830078008058eb000580410066
:1005e000808f5000fcff3a000600780000000600f3
:1005f0008001eb0002003700817178008301e80080
:10060000828f5100fcff3a00000006008000780055
:10061000010037000000e8001004e000fdff3a0090
:100620000100500000000600839f68000100e00008
:1006300002003d0060001000e08018000300e000b0
:1006400002003d0060011100e08119000500070073
:100650004f00e00002003b0060001000e080180046
:10066000000006006022b800060220000000d00052
:100670008180d2000482d2008582d2000000a000d6
:100680000202520083825a0003003100020242003b
:1006900083824a000000a1000603e900f3ff3a004c
:1006a00000000600889fbe008a9fbe0001057800fa
:1006b0000100e0000400350008003c000000e000fc
:1006c000200032000500370060001000e0801800b4
:1006d00002003b0001f02c001a0037000004be00ad
:1006e0006011b8006b0920000982cf0002003900b8
:1006f0000882cf000441b000694252000e0032006f
:1007000008003b0082817100610164008904d1000e
:100710000884d3008b05e8000442e800f9ff3a00a2
:10072000050037000804440089844c008b05e9006b
:100730000442e900fbff3a00f40007000af0a700ba
:1007400001f0a0004f05be004f04be0000000600ef
:1007500003f0a200889fbe008a9fbe008c1f780015
:1007600010010700170133006450e1004f00320010
:100770006420e1005200320003826c0007003b005d
:100780000905d0000306d000820f54000c065d005e
:100790000200390002003200890178000306780067
:1007a0008582550004003d000003fd008103fd002b
:1007b0008502ea008b854200840f720002003b0034
:1007c00060001000e08018006011b8000005eb0028
:1007d0007a28e1000a00390006007800c75ddd00d4
:1007e000f707b200878075002d0037008281710005
:1007f0000a017800610560008180d1000080d3008b
:100800008502e900f9ff3b000604400087844800a8
:1008100002003b0060041400e0841c000988a3006f
:10082000070032008a8171008281710061016400d9
:100830008904d1000884d3008b05e8001700370035
:100840000978a30013003a000b00e0001300340005
:100850008b05e9000804440089844c000a447400b4
:100860000978a3000d003a000b00e00007003400f7
:100870008b05e9000804440089844c0001003a001b
:100880000b0020000978a300f7ff32000001eb0005
:1008900002003700828171000a0178009b00070086
:1008a0000cf0a70001f0a000cf0037006420e100a9
:1008b00002003a00838f6c00cf0033000801be00b5
:1008c0000200be00c8003700889fbe008a9fbe009d
:1008d0008c1f7800b3000700ba00330003866c0059
:1008e0006450e100240032006420e100270032005f
:1008f0006150e100220032006120e100210032005d
:100900008b854200eb07b1000134b800003ab80013
:100910000804420089844a00013ab8000030b80057
:100920008880400009014a000400330000004000b4
:1009300081804800020149008b05e900c909dd00fa
:10094000830170000100320013002000c814de0093
:100950004814dd004709de001200b200c808de00be
:10096000088470006900070001f0a1000cf0a700e6
:1009700001f0a0009c0037006120e1009e003200e1
:100980000801be000200be00f7ff37006150e10021
:10099000fcff3a0098003700889fbe008a9fbe0087
:1009a0008c1f78007f0007008600330003866c00f0
:1009b0006450e1002e0032006420e1003300320078
:1009c0006150e1002f0032006120e100310032006f
:1009d00085855500eb07b0000900200008042000c1
:1009e000050037000804440089844c000a003100e7
:1009f0000603430087834b000001530081815b00a5
:100a0000f8ff33000203be000800a0000804440001
:100a100089844c00f6ff3900c639dd00830173007c
:100a200001003200130020008904d1000884d300a3
:100a30000998a300050032000800a7000300a000e9
:100a40008904d1000884d3008b05e8008904d10013
:100a50000884d3000001eb000281d2002b000700c4
:100a600001f0a1000cf0a70001f0a0005e0037002b
:100a70006420e100600032000801be000200be00f8
:100a8000f7ff37006120e1005b0032006000b80032
:100a9000f3ff37000000200001f82700f0ff3700c7
:100aa0000001be00570007000470a70003f0a1007a
:100ab00003f8a30013003a006509b10010003200ea
:100ac000090035006928e100020035000100280016
:100ad0000000050000004000818048008502e90018
:100ae000fcff3a0000000600f88f420005003500c8
:100af0008100d1000080d3008502e800fcff3a00ad
:100b0000000006008000eb000000050081002000ce
:100b1000618055000b003d000b00200061fe2f009e
:100b20000100e1001d003400828171006101640058
:100b30008904d1000884d3000000e800faff3a00dd
:100b4000710020006100640003007000020060007a
:100b50000900320061044400e0844c000988a500cb
:100b6000050032008b05e8006808e10002003a0049
:100b70008904d1000884d300f20f20000258e1005c
:100b800005003d00c75ddd00f907b20089807500f2
:100b900008007800000006000bf827008b007800a2
:100ba000000005000004be00160007000003be00a0
:100bb0000405be000200be0012000700844f75004d
:100bc000000006000200be006450e100050036008f
:100bd0006420e100020036000968a30001003a0029
:100be0000800be000160a0004f0678004f05be005f
:100bf0004f04be0000000600f0ff2f00f1ff2700a9
:100c0000f9ff3700c70ade00f107b200f50fb200a6
:100c100008003200e1cf4200020032000170a00063
:100c200024000500810f7000010032000408050057
:100c300044000500810f700002003a001400050016
:100c40008502e9000000400081c04800fcff3b0035
:080c50000170a0002400050062
:020000040000fa
:0200000401f009
:04000c00f8ff0000f9
:020000040000fa
:0200000401f009
:040010007fff00006e
:020000040000fa
:0200000401f009
:040014007fff00006a
:020000040000fa
:100008009425000094250000942500009425000004
:1000180094250000942500009425000094250000f4
:10002800942500009425000094250000722100000a
:10003800942500009425000094250000e624000083
:10004800942500009425000094250000ac1a0000b7
:10005800001b000094250000942500009425000052
:1000680094250000942500009425000094250000a4
:100078009425000094250000942500009425000094
:100088009425000094250000942500009425000084
:100098009425000094250000942500009425000074
:1000a8009425000094250000942500009425000064
:1000b8009425000094250000942500009425000054
:1000c8009425000094250000942500009425000044
:1000d8009425000094250000942500009425000034
:1000e8009425000094250000942500009425000024
:1000f8009425000094250000942500009425000014
:100108009425000094250000942500009425000003
:1001180094250000942500009425000094250000f3
:1001280094250000942500009425000094250000e3
:1001380094250000942500009425000094250000d3
:1001480094250000942500009425000094250000c3
:1001580094250000942500009425000094250000b3
:1001680094250000942500009425000094250000a3
:100178009425000094250000942500009425000093
:100188009425000094250000942500009425000083
:100198009425000094250000942500009425000073
:1001a8009425000094250000942500009425000063
:1001b8009425000094250000942500009425000053
:1001c8009425000094250000942500009425000043
:1001d8009425000094250000942500009425000033
:1001e8009425000094250000942500009425000023
:0801f80094250000942500008d
:020000040000fa
:100208009425000094250000942500009425000002
:1002180094250000942500009425000094250000f2
:100228009425000094250000942500007221000008
:10023800942500009425000094250000e624000081
:10024800942500009425000094250000ac1a0000b5
:10025800001b000094250000942500009425000050
:1002680094250000942500009425000094250000a2
:100278009425000094250000942500009425000092
:100288009425000094250000942500009425000082
:100298009425000094250000942500009425000072
:1002a8009425000094250000942500009425000062
:1002b8009425000094250000942500009425000052
:1002c8009425000094250000942500009425000042
:1002d8009425000094250000942500009425000032
:1002e8009425000094250000942500009425000022
:1002f8009425000094250000942500009425000012
:100308009425000094250000942500009425000001
:1003180094250000942500009425000094250000f1
:1003280094250000942500009425000094250000e1
:1003380094250000942500009425000094250000d1
:1003480094250000942500009425000094250000c1
:1003580094250000942500009425000094250000b1
:1003680094250000942500009425000094250000a1
:100378009425000094250000942500009425000091
:100388009425000094250000942500009425000081
:100398009425000094250000942500009425000071
:1003a8009425000094250000942500009425000061
:1003b8009425000094250000942500009425000051
:1003c8009425000094250000942500009425000041
:1003d8009425000094250000942500009425000031
:1003e8009425000094250000942500009425000021
:0803f80094250000942500008b
:020000040000fa
:100c58001111000022220000333300004444000038
:100c68005555000066660000777700008888000008
:100c780099990000aaaa0000bbbb0000cccc0000d8
:100c8800dddd0000eeee0000cecd0000acab0000d4
:100c98000202000003030000040400000505000030
:100ca8000606000007070000080800000a090000ff
:100cb8001010000010110000121200005431000042
:100cc80000540000617300006b3100003a0000001e
:100cd80054610000736b0000323a000000460000c7
:100ce8007265000065520000544f00005300000078
:100cf800303100002e320000303100003100000099
:100d080054730000310000005473000032000000ea
:100d180054730000433200000000000051430000fb
:100d28006f6e000073420000310000005150000057
:100d3800726f000064420000320000005150000051
:100d4800726f00006442000033000000514300004d
:100d58006f6e000073420000340000005150000024
:100d6800726f00006442000035000000514300002b
:100d78006f6e00007342000036000000960000000d
:100d8800c8000000fa0000002c0100005e0100000d
:100d980090010000c2010000f4010000425400006c
:100da80065730000743100000042000054650000c3
:100db8007374000032000000434f00004d540000df
:100dc80078000000434f00004d52000078000000fa
:100dd800496e0000744d0000617400006800000056
:0c0de800494400004c45000000000000e1
:020000040000fa
:100df4000000fa00fc3cec000080fa000000060051
:100e04000000fa00889fbe008a1f78000005780061
:100e140081047800e38f500001003600390020007f
:100e2400230d070040e880008a0f500002003a00ba
:100e34000005eb00020037000a00e00002003a005f
:100e440048e88000010037000a047800b8089000e0
:100e5400818f540025003200030036000a00e000b0
:100e640003003a00040037000a00e00002003a00e0
:100e74001a002000010037000005eb00390c98002f
:100e840064801400600498006a09b900e0c7210076
:100e940002004000d8009000808f50000e003a00fd
:100ea4008884e80009007800a80d0700b8089000bd
:100eb40000e88000808f50000100360001e88800bf
:100ec400380990006a11b900e0c72100020040000f
:100ed40089007800770d0700e10f550003003a0000
:100ee400502302000000000000000000f50c070081
:100ef4004f0578004f04be000080fa000000060091
:100f04000000fa00889fbe008a1f780080047800e1
:100f1400e70c070040e88000890f500002003a0007
:100f24008004eb00020037000900e00002003a00f0
:100f340048e8800001003700090478000885e800cb
:100f44000a007800810d0700280890000000e000e6
:100f5400020032006c0044007c0d07008a00780017
:100f640020c52100530d0700d60c07000900e0003e
:100f740003003a00502302000000000000000000bb
:100f84004f0578004f04be000080fa000000060000
:100f94000000fa0000017800d000900020c5210074
:100fa400808f500007003a00a2089000c0c52100bd
:100fb400808f500003003200100020000100e00088
:100fc400010032000000eb000080fa00000006007f
:100fd4000000fa00889fbe00000478000000e000d2
:100fe4001f00320040e88000800f54001c003200d3
:100ff400af0c070008007800e5ff0700e10f500080
:1010040016003a008884e800090078004f0d0700b4
:10101400b808900000e88000808f5000010036007e
:1010240001e88800380990006a11b900e0c721007e
:1010340002004000890078001e0d070040e880008f
:10104400b808900030089000808f500003003900e9
:10105400502302000000000000000000990c07006b
:101064004f04be000080fa00000006000000fa00f1
:10107400889fbe008a1f780000047800c4ff070020
:101084000005eb00e10f50001d003a00e1e780008d
:101094000100e00016003a0040e8800001057800f5
:1010a400b808900030089000808f5000010039008b
:1010b4001a0020008884e80009007800230d070046
:1010c400b808900000e88000808f500001003600ce
:1010d40001e88800380990006a11b900e0c72100ce
:1010e4000200400089007800f20c07000400370079
:1010f400ec004400c0c52100ee0c07000005eb0025
:101104000a0078004f0578004f04be000080fa0002
:10111400000006000000fa0042a0a800fe3cef0018
:10112400600c07000080fa00000006000000fa00ce
:10113400881f7800fc1ce2002b003a00043dec0000
:10114400041de20005003a0040e3800031e3800022
:1011540041e3880030e38800f63cec0040e3800083
:101164001000e00022003a002a00370098009000a6
:1011740020e88000808f500026003e000880e800b0
:10118400f20c0700280890000000e0000200320082
:101194006c004400ed0c0700b808900000e88000e3
:1011a400808f50000100360001e888008880e80044
:1011b400380990006a11b900e0c72100020040001c
:1011c400bc0c070040e380001000e0001100320076
:1011d40040e3800030009000300490000800e000fc
:1011e400e2ff3a000b003700fa3cec00090037003c
:1011f40040e3800030009000300490000800e000dc
:10120400040032009800900020e88000808f500095
:10121400daff36004f0478000080fa000000060070
:101224000000fa00889fbe00210c0700fc3ced0082
:10123400e0e780000000e00033003a00061de20011
:101244003100320080047800150037006c0044003f
:10125400be0c07000880e800bc0c0700b80890002a
:1012640000e88000808f50000100360001e888000b
:101274008880e800380990006a11b900e0c72100ad
:10128400020040008b0c0700b808900040e8800082
:1012940030089000808f50000100390019002000b0
:1012a4005c1ce2000500320010e380003000900076
:1012b400000478000000e000e4ff3a00fa1ce200b9
:1012c40013003a000500370098ff0700fa3ced00d0
:1012d400fa1ce20006003200fbff3700e18f5400e5
:1012e40003003200c0e78000e10f500006003a001e
:1012f400f83cef0050230200000000000000000052
:1013040018002000050037000004eb00030037003c
:10131400fa1ce200f6ff3200ebff3700e90b07008e
:10132400080078004f04be000080fa0000000600a8
:101334000000fa00889fbe00800478000000e000ee
:1013440016003200aafe070028e880000884440042
:10135400089dec007d0c070040e880001800980010
:1013640020e88000800f54000500310041e880002f
:1013740030e380008180e8005c0c07000400370043
:1013840041e8800040e380008180e800570c0700ba
:10139400a3ff07000000e00003003a00502302000e
:1013a40000000000000000004f04be000080fa00ae
:1013b400000006000000fa00889fbe008004780048
:1013c400010478008afe0700990078000884400030
:1013d40020e88000808f500003003600888f500082
:1013e4000600360002003700888f500005003e00da
:1013f40020e88000800f540002003e000000eb0053
:101404000100370010002000880c78000000e00084
:1014140010003200089dec004c0c070040e88000ee
:101424001800980020e88000800f54000500310067
:1014340041e8800030e380008180e8002b0c070045
:101444000400370041e8800040e380008180e80028
:10145400260c070072ff07000000e00003003a00ba
:101464005023020000000000000000004f04be00f2
:101474000080fa00000006000000fa00881f7800cf
:101484008b0b070028e880008e0b0700080078000b
:101494004f0478000080fa00000006000000fa0003
:1014a40030e880000080fa00000006000000fa0026
:1014b400fc1ce2001500320010002000c0e7880088
:1014c40019003700003ded001000370000e88000ef
:1014d4006a00b900e2c721008000410011009000b9
:1014e400100190009200980064804000800f510029
:1014f40002003a001201900092009800110090003e
:101504003000900040e888000700370000e88000c1
:101514006a00b900e2c72100620078000000e00020
:10152400e8ff3200e9ff37000080fa0000000600ff
:101534000000fa00881f78000104780041e8800068
:10154400ec804000e90b0700089dec00ff0b07004e
:10155400e10f440005003a0041e880008180e80082
:1015640020c52100d30b07001000370020e88000bd
:101574000000440041e880009000980021e88000c9
:10158400810f50000500310041e8800030e3800005
:101594008180e800d50b07000400370041e8800093
:1015a40040e380008180e800d00b07004f047800fe
:1015b4000080fa00000006000000fa00881f78008e
:1015c40080007800100078000000e00002003a007b
:1015d40000047800020037003100900030049000cd
:1015e4006c004400d90b0700fc1ce2000e003a001a
:1015f4000880e800d50b0700b808900000e88000d8
:10160400808f50000100360001e888008880e800df
:10161400380990006a11b900e0c7210002004000b7
:10162400a40b070003003700ec004400c0c52100f0
:10163400a00b07003808900041e88000b108900032
:101644000001eb00810f500001003900120020005e
:10165400020078004f0478000080fa0000000600c1
:101664000000fa00b1e780000108780021e880005a
:10167400110098000080fa00000006000000fa0043
:10168400889fbe008a1f7800000478000105780056
:10169400070b07001a0178008004eb00e10f4100fa
:1016a40014003200b0e78000980f100004003200ec
:1016b40021e8800018009000810f50000c003600d3
:1016c4009800900001007800041db500800f5100bf
:1016d4000700360001007800041db500000d51001c
:1016e40008007800deff07008004eb0001003700eb
:1016f40019002000f30a0700090078004f0578005c
:101704004f04be000080fa00000006000000fa004a
:1017140010002000c0e788000080fa0000000600e6
:101724000000fa000080fa00000006000000fa0041
:10173400f0e38000e10f5000030036005023020064
:1017440000000000000000001b0a0700f8ff37003b
:101754000000fa00889fbe008a1f78008004780089
:10176400020478007a004000420020008cfb07004d
:101774000040eb00d05c9800e30f540003003600f7
:10178400380020001a00200001003700640514000e
:10179400b80c98000980e800410b07006c844400f1
:1017a400080078003e0b0700c90498000a0c780072
:1017b400990c98004f0578004f04be000080fa0091
:1017c400000006000000fa00889fbe00e8c7210060
:1017d40069ca210008007800280b07006a04440045
:1017e400888f5400fbff3a0040c72100230b0700f9
:1017f400a0c62100210b0700c0c521001f0b070054
:1018040020c521001d0b070040c7210040e38800cc
:10181400a0c6210030e388004f04be000080fa0017
:10182400000006000000fa00889fbe008a1f7800ae
:101834000005780001047800000220007c0c0700f9
:10184400800478000000e000100032000800e0008e
:1018540003003a000a004500750c070000047800f4
:10186400c80c98000800e00004003a000900780061
:10187400880c070088047800040037000a0145003a
:10188400510a20000800780058fb0700090078007e
:101894004f0578004f04be000080fa0000000600e7
:1018a4000600fa00889fbe008a9fbe008c9fbe007f
:1018b400000f7800010678000205780013079800ed
:1018c400840678002507980086007800870578004c
:1018d40002007800d3ff0700800478000080eb004a
:1018e4000900e00041003200490c90000a00450064
:1018f400000044000080e900f00c98000a0278001f
:101904008b0178000d0178008c00780009007800c4
:101914008fff07001e0190009e00780008007800e9
:101924001a0a0700800c7800610a0700063dec00e3
:1019340030e88000e10f500003003a0049e88800d5
:10194400a0ff070007003700fe1ce20005003a0074
:1019540040e8800030089000808f56000100390074
:1019640049e88800b908900010e88000808f500092
:101974000100360011e88800f43cec00b90890003e
:1019840000e88000808f50000100360001e88800e4
:101994008980e800390990006a11b900e0c7210084
:1019a40002004000c30a0700460a07002e00900008
:1019b4000000e0000100320009087800fe1ce2008b
:1019c4000900320040e88000300890008d0f50007c
:1019d4000500310050230200000000000000000058
:1019e4001000200001003700100020004f06be0048
:1019f4004f05be004f04be000080fa000000060040
:101a04000000fa008003eb000003eb00860278007c
:101a1400060278008601780092062000416f2800b3
:101a240080b920009eff0700e10f500004003a0037
:101a340042a0a800f0e78800043def00e909070090
:101a44000080fa00000006000000fa00889fbe0033
:101a54008a9fbe0080047800010578000000e00041
:101a64002400320060022000f10b0700000478001b
:101a74000000e0001f0032000ac8b90080057800a9
:101a84000000e800ea0b070000017800000c780071
:101a94000000e000130032000b0040001004980026
:101aa4000000eb00600c9800220498000900e90093
:101ab40000d0b9000000410030049800790c98006f
:101ac4000a1498000080eb00101498002014980069
:101ad40068004400690a070072004400670a0700ae
:101ae4000500370008007800ea0b07000004eb004b
:101af400010037000004eb00080078004f05be0029
:101b04004f04be000080fa00000006000000fa0046
:101b1400889fbe0000047800e5090700e8089000eb
:101b24008004eb0078089000808f500001003a0098
:101b340019002000e3090700090078004f04be00e3
:101b44000080fa00000006000000fa00881f7800f8
:101b540000047800d6090700680c9000d909070032
:101b6400080078004f0478000080fa0000000600a6
:101b74000000fa00600890000080fa0000000600ef
:101b84000000fa00881f7800000478001000780034
:101b9400c00b070008007800be0b07004f04780054
:101ba4000080fa00000006000000fa00881f780098
:101bb4000004780002007800081190000200e000a0
:101bc400190032000000e0000c003a0028009000e8
:101bd4006cfa070028009000881090000100400073
:101be4002004980098009000810f50000e003900e6
:101bf40018007800200498000b003700380090008b
:101c040060fa07003800900088109000010050002e
:101c140030049800980f5000030031001800900021
:101c24000100500030049800680890000000e800ab
:101c3400600c98004f0478000080fa000000060051
:101c44000000fa00889fbe000004780001027800ba
:101c54008204780003017800e00890007008900086
:101c64008001eb00808f5000160031008400780062
:101c740008007800ccff070028109000e10f400016
:101c84000b003a00180890000000e0000c0032003d
:101c94007200440048fe07000000e0000800320023
:101ca40010002000800c78008001780005003700c7
:101cb4000000e80020149800130020000100370001
:101cc40013002000030078004f04be000080fa00d7
:101cd400000006000000fa0000017800810178008d
:101ce4001000e0000e0032003000900082109000de
:101cf400010040003001980092009000810f5000d4
:101d0400020039001200780030019800660041009a
:101d140090007800021190000300780019fa07007f
:101d24000080fa00000006000000fa00889fbe0050
:101d34000004780082047800600890000000e0004d
:101d44001700320008007800e2ff070068089000de
:101d54000000e900600c980018109000e10f4000aa
:101d64000a003a00480090000000e0000b00320036
:101d74006800440010fe07000000e0000700320085
:101d840010002000800c7800050037000000e800f7
:101d940010149800100020000100370010002000eb
:101da4004f04be000080fa00000006000000fa00a4
:101db400881f7800000478003d090700281090006f
:101dc4000000e00029003c000d00370018089000d6
:101dd4000000e0000a00320072004400f6fd070033
:101de4000000e0000100320048fe070028109000c7
:101df4000000e900201498004240a900f3ff3c00d1
:101e04000080eb00201498002e0907002809070021
:101e1400181090000000e00018003c000d0037008e
:101e2400480090000000e0000a003200680044000e
:101e3400e1fd07000000e0000100320033fe07006e
:101e4400181090000000e900101498004240a90006
:101e5400f3ff3c000080eb00101498001909070000
:101e64004f0478000080fa00000006001808900073
:101e74000000e000e2ff3200d7ff37004800900086
:101e84000000e000f3ff3200e8ff37000600fa002c
:101e9400889fbe008a9fbe008c1f78008004780053
:101ea4008105780022079800030678000005eb00fe
:101eb400ff080700690890000000e0001f003200de
:101ec400390490008b0078000900780081ff070036
:101ed4000c00e0000b003a00690890000000e900e3
:101ee400e00c9800490090000000e000100032006f
:101ef40068804400b0fd0700e10f50000c003a0078
:101f040008003700b8049800190890000000e000a9
:101f14000700320072804400a7fd07000000e000c3
:101f24000300320050230200000000000000000003
:101f3400e408070010002000370037002e0490004a
:101f44000800e00003003a00de08070008007800fb
:101f5400310037000a00e00003003a000e00780068
:101f6400bffd07001a002000d6080700a0fb0700e9
:101f7400cf08070019109000e10f400002003a005a
:101f84000000eb009014980029109000e10f40002d
:101f940002003a000000eb00a0149800c9080700f2
:101fa400e40047000e007800b4fd07000000e000e4
:101fb40015003a00be080700690c9000c10807002c
:101fc4000800e0000c003a00ae009000728044006b
:101fd40057fd07000900780074ff070090fc070014
:101fe4000000e000b2ff3a005023020000000000ad
:101ff40000000000aeff3700090078006bff070007
:1020040087fc0700aaff37000900780067ff070074
:1020140083fc07000000eb004f0678004f05be006c
:102024004f04be000080fa00000006000600fa001b
:10203400889fbe008a9fbe008c1f780080047800b1
:102044000106780022079800830578000005eb005c
:1020540097080700e908900079089000808f5000e5
:10206400110031000b0178008c0078000900780021
:10207400cdfe0700190890000000e00007003200c0
:10208400728044004cfd0700e10f500003003a0049
:10209400502302000000000000000000890807002f
:1020a40010002000360037002e0490000800e000e5
:1020b40003003a0083080700080078003000370066
:1020c4000a00e00003003a000e00780064fd0700f7
:1020d4001a0020007b08070045fb0700740807006e
:1020e40019109000e10f400002003a000000eb00dc
:1020f4009014980029109000e10f400002003a006b
:102104000000eb00a01498006e080700e4004700ec
:102114000e00780059fd07000000e00014003a00aa
:102124000900780079fe07000000e0000c0032008e
:10213400ae00900068804400fdfc070009007800b0
:102144001aff070036fc07000000e000c0ff3a0059
:10215400502302000000000000000000bcff370014
:102164000900780011ff07002dfc0700b8ff3700b5
:10217400090078000dff070029fc07000000eb00b0
:102184004f0678004f05be004f04be000080fa00e1
:10219400000006000000fa00e00890000100ea00d8
:1021a400010070004f00de00610010000080fa00a2
:1021b400000006000000fa00e00890000001eb00b7
:1021c40070089000808f500001003a001200200037
:1021d400020078000080fa00000006000000fa0007
:1021e400889fbe008a1f78000004780001057800eb
:1021f4008204780042a0a80044fe07000000e0002a
:102204000b0032000900e00006003200e800440040
:10221400090078003c03070042a0a900c0ff2f007a
:102224001a00370042a0a9000000eb001700370095
:1022340042a0a9000000000042a0a800e808900005
:10224400780890000001eb00808f50000d003100f1
:102254000001eb008a0078000800780052fe0700b5
:10226400180890000000e0000500320072004400ed
:1022740022040700b2ff2f000000e00001003a0032
:102284001200200042a0a900020078004f05780047
:102294004f04be000080fa00000006000000fa00af
:1022a400881f7800000478008101780042a0a8000b
:1022b400600890000000e0000b003a000200e0001b
:1022c40006003200f2004400020078000e0307000a
:1022d40042a0a900c0ff2f002700370042a0a90098
:1022e4000000eb002400370042a0a9000000000019
:1022f40042a0a800680890000000e00002003a0034
:10230400800078001a003700380090008810900090
:10231400010040003004980098009000810f5000a4
:102324000200390018007800300498006808900012
:102334000000e900600c98006600440090007800fa
:1023440008119000030078008ef807004800900000
:102354000000e0000500320068004400e7030700c5
:10236400b1ff2f000000e00001003a00110020003e
:1023740042a0a900010078004f0478000080fa0010
:10238400000006000000fa00889fbe0000047800e8
:102394008101780082047800e008900070089000c1
:1023a400808f50000f0031000001eb0083007800a3
:1023b40008007800fcfd07000900e00009003a006d
:1023c400180890000000e000080032007200440089
:1023d400ca030700110020000000e00004003a00d6
:1023e4000200370089007800010037008000eb000c
:1023f400010078004f04be000080fa0000000600cf
:102404000000fa00889fbe00000478008101780073
:1024140082047800600890000000e0001e00320092
:1024240038009000881090000100400030049800ab
:1024340098009000810f50000200390018007800c5
:1024440030049800680890000000e900600c9800cf
:1024540066004400900078000811900003007800a2
:1024640048f807001900e0000a003a00480090000c
:102474000000e00007003200680044009f030700ea
:102484000000e0000300320010002000800c7800ff
:1024940001003700100020004f04be000080fa0045
:1024a400000006000000fa00210020005000200077
:1024b40065fd0700c0e888008003eb000003eb0023
:1024c40086027800340020008601780092062000fd
:1024d400216d280060282100f1fc07008003eb0037
:1024e4000003eb0065d12100240020008601780060
:1024f40092062000916d280060452100e8fc070049
:102504000080fa00000006000600fa00889fbe0062
:102514008a9fbe008c9fbe000006eb001d002000b9
:10252400e200470064004700010878001c07980097
:102534008c007800a00020000104dd00cefb070021
:1025440080047800c0e880008001eb000801780076
:102554008e0078004dfe07000000e000010032000c
:102564005de88800c4fb070089005000810f540017
:10257400010036005de888006f004400808f500041
:10258400010036005de888001e0090008000e8002d
:1025940011079800e48f5000e6ff34001c079800f0
:1025a400640047009005780018002000c0e880000f
:1025b4008001eb00030178008b0078009bfe07008c
:1025c400e10f50000100320058e888001e0090001e
:1025d4000000e80010079800e40f5000f3ff3400f7
:1025e4001c0798008c0078001a002000a00020002e
:1025f4000104dd00a0fb070080047800c0e880002f
:102604008001eb00080178008b00780087fe07004a
:102614000000e000010032005ae8880096fb070041
:1026240089005000810f5400010036005ae88800e8
:102634006f004400808f5000010036005ae8880083
:102644001e0090008000e80011079800e48f5000fd
:10265400e6ff3400143def00b0e880005cfa0700a8
:10266400a1e8800050052000808f50000600320051
:1026740000047800400120002dfb0700a0e8800042
:10268400880f5000fbff3a004001200028fb0700a0
:10269400ace888001c0798001800200059052000a9
:1026a400c0e880008001eb00030178008e00780010
:1026b400f6fd0700e10f50000100320058e88800e1
:1026c400c0e880008001eb00030178008b007800f3
:1026d40056fe0700e10f50000100320058e8880060
:1026e400a0e88000890f500001003a0058e88800f3
:1026f400b0e8800051002000c1f90700a0e8800084
:10270400890f500001003a0058e88800b0e88000c2
:1027140021002000baf907001e0090000000e80024
:1027240010079800e40f5000ddff3400a1e880009a
:1027340050052000808f500006003200000478000d
:1027440040012000fafa0700a0e88000880f50003a
:10275400fbff3a0040012000f5fa0700ace88800ce
:102764001c07980018002000c0e880008001eb00de
:10277400030178008e007800c4fd0700e10f5000cb
:102784000100320058e888001e0090000000e800b4
:1027940010079800e40f5000f3ff3400b0e8800005
:1027a4000bfa0700a1e8800050052000808f50003c
:1027b400060032000004780040012000dcfa070023
:1027c400a0e88000880f5000fbff3a004001200081
:1027d400d7fa0700ace888001c079800180020000e
:1027e40059052000c0e880008001eb000301780057
:1027f4008b0078000dfe0700e10f5000010032004d
:1028040058e88800c0e880008001eb0003017800ec
:102814008e0078009dfd0700e10f5000010032009a
:1028240058e88800a0e88000890f500001003a00b1
:1028340058e88800b0e880005100200070f90700d3
:10284400a0e88000890f500001003a0058e8880091
:10285400b0e880002100200069f907001e00900004
:102864000000e80010079800e40f5000ddff34007a
:10287400a1e8800050052000808f5000060032003f
:102884000004780040012000a9fa0700a0e88000b5
:10289400880f5000fbff3a0040012000a4fa070013
:1028a4000e3dec0021ff37000200fa00889fbe00b5
:1028b4008a9fbe008005eb00590520001a00200005
:1028c4000000eb008ef90700ebfa07000004780023
:1028d4000b0f7800a9e88800c0e880008b0178001d
:1028e400f20a20008e007800d0fd07000000e0000e
:1028f400010032005ae88800dffa0700880050001f
:10290400e00a2000808f500003003600e00b200016
:10291400808f5000010036005ae88800a9e888003a
:102924000000eb0076f90700d3fa070000047800f2
:10293400a9e88800c0e880008001eb00f20a2000ca
:102944008e00780051fd07000000e0000100320015
:102954005ae88800c8fa070088005000e00a2000fe
:10296400808f500003003600e00b2000808f500061
:10297400010036005ae88800a9e888000c3dec0004
:10298400cfff37000000fa0071e880000041eb003f
:1029940090e88000808f500001003a0012c0b3001c
:1029a400024078000004a2000081fb0061e880007e
:1029b40080e88000808f500001003a000001eb00a5
:1029c40050e88000e10f500001003a000001eb00e4
:1029d40060e8800080e8880070e8800090e8880063
:1029e400020078000080fa00000006000000fa00ef
:1029f4000000e000270034008000eb00000000002d
:102a040000000000000000000000000000000000c2
:102a140000000000000000000000000000000000b2
:102a240000000000000000000000000000000000a2
:102a34000000000000000000000000000000000092
:102a44000000000000000000000000000000000082
:102a54000000000000000000000000000000000072
:102a64000000000000000000000000000000000062
:102a74000000000000000000000000000000000052
:102a840000000000000000008100e800810f5000f9
:102a9400daff3a000080fa00000006000000fa00a5
:102aa400889fbe00800478000000e0000600340027
:102ab4000004eb00803e2000ccff07000804e8007f
:102ac400888f5400fbff3a004f04be000080fa00d8
:102ad400000006000000fa004c00dd00ca22b70026
:102ae4000080fa00000006000000fa004c00dd003f
:102af400f1ff200001007000ca22b6000080fa0035
:102b0400000006000000fa000000eb00f1ff0700df
:102b1400ca82a80080022000b4ff0700ca82a9006c
:102b24000080eb00f0ff070010002000e9ff070021
:102b3400ca82a80020002000d8ff0700ca82a9008a
:102b4400e0ff2f00e8ff07000080fa000000060005
:102b54000000fa00889fbe008004fb0044ccde0025
:102b640008007800dbff0700cac2a800100020009c
:102b74009eff0700ca82a800800220009bff070076
:102b8400ca82a900080078000080ea008180ea0077
:102b9400d5ff07006f84640008007800cdff0700ac
:102ba4001000200091ff0700ca82a80080022000c4
:102bb4008eff0700ca82a900cac2a90008007800d3
:102bc4000080ea008180ea00c7ff0700800220003d
:102bd40086ff07004f04be000080fa0000000600d4
:102be4000000fa00889fbe00c1cfb30009fc2f008b
:102bf400e20f50001100320003003c00e10f5000ce
:102c040009003a000b00370091cfb30049f92f00b7
:102c1400e30f500009003200d1cfb30049fd2f006b
:102c2400e40f5000050032008040eb008004eb000c
:102c34000200370081cfb30009f82f000104fb0024
:102c440008007800a3ff0700ca82a8004001200002
:102c540066ff0700ca82a900080078000080ea0025
:102c64008180ea00a0ff07006f84640008007800f8
:102c740098ff0700ca82a800400120005bff0700fc
:102c8400ca82a900080078000080ea008180ea0076
:102c940095ff07004f04be000080fa000000060004
:102ca4000000fa00cae2a800800220007bff0700af
:102cb4002000200087ff0700ca82a80080022000ad
:102cc4004aff0700ca82a900d0ff2f0086ff070031
:102cd400200020007fff0700ca82a8008002200095
:102ce40042ff0700ca82a900d0ff2f007eff070021
:102cf4008000200077ff0700ca82a800800220001d
:102d04003aff0700ca82a90070ff2f0076ff070070
:102d14000000eb006fff0700ca82a80080022000b9
:102d240032ff0700ca82a9000080eb006eff070093
:102d3400e000200067ff0700ca82a800800220008c
:102d44002aff0700ca82a90010ff2f0066ff0700b0
:102d54006cff07000000eb005eff0700ca82a800ba
:102d64008002200021ff0700ca82a9000080eb0036
:102d74005dff07006000200056ff0700ca82a8001c
:102d84008002200019ff0700ca82a90090ff2f00cb
:102d940055ff07002000200040ff07000080fa00d4
:102da400000006000000fa00889fbe008a9fbe0053
:102db40080057800000578008004eb0003003700ec
:102dc40068c07d0062ff07008904e80009047800f8
:102dd4000a0078000cf60700890f5000f8ff3e0047
:102de4004f05be004f04be000080fa00000006003c
:102df4000000fa00889fbe0002ccb300e20f50002e
:102e04000d00320003003c00e10f500007003a00bf
:102e14000800370042c9b300e30f50000600320037
:102e240042cdb300e40f5000030032000041eb0038
:102e34000100370002c8b300014441000844e9001e
:102e44000804fb00c4c4de000900780021ff070069
:102e5400ca82a80040002000e4fe0700ca82a9003c
:102e6400090078000080ea008180ea001eff070064
:102e74006f0464000800780016ff0700ca82a800e7
:102e840040002000d9fe0700ca82a900080078008b
:102e94000080ea008180ea0013ff07004f04be00af
:102ea4000080fa00000006000000fa00881f780085
:102eb400880020000000e000040032000004eb0061
:102ec400e10f500001003a00a8002000080078003b
:102ed40000ff0700ca82a80080022000c3fe07008a
:102ee400ca82a900080078000080ea008180ea0014
:102ef400fdfe070080022000bcfe07004f0478009e
:102f04000080fa00000006000000fa00889fbe005e
:102f14000001780081047800f0e88000000441009a
:102f2400229dec008905070010e980001800980034
:102f3400f0e88000800f54000500310011e98000a2
:102f44008180e80080e58000680507000400370000
:102f540011e980008180e80090e5800063050700a6
:102f64000900e0000400320011e98000ec80400018
:102f7400090078005d0507004f04be000080fa00d8
:102f8400000006000000fa00881f7800a61ce2007a
:102f94001a00320042a0a80030e580000000e000e2
:102fa40002003a00000478000200370060e5800067
:102fb400300490006c0044006405070042a0a9009e
:102fc4000880e80061050700b808900000e9800067
:102fd400808f50000100360001e988008880e800f5
:102fe400380990006a11b90080cc21000200400029
:102ff40030050700a61ce200e6ff3a004f04780003
:103004000080fa00000006000000fa00881f780023
:1030140019f90700e1e8800001005000d0e88800b9
:103024002e003700f1e880008100e800f1e8880014
:103034000000e900d0e888000100e00004003a0044
:1030440090e5800082e5800092e5880080e58800b4
:1030540090e580001000e00028003a001f003700cf
:1030640098009000f0e88000808f50001b003e0024
:1030740042a0a8000880e800340507002808900052
:103084000000e000020032006c0044002f0507003d
:1030940042a0a900b808900000e98000808f500089
:1030a4000100360001e988008880e80038099000b2
:1030b4006a11b90080cc210002004000fd04070021
:1030c40090e580001000e000040032003000900021
:1030d400300490000800e000e1ff3a00d0e88000ee
:1030e4000000e000cfff3a00f0e88000e0e888004c
:1030f4004f0478000080fa000000060030009000c1
:10310400300490000800e000f4ff32001800900042
:10311400808f5000f1ff3900d5ff37000000fa001e
:1031240098ff0700b8ff070004e980006a20b9008f
:1031340082cc2100800041001100e000190032001f
:10314400090037000201e8006a005000840f5100b2
:103154001c0032008301e90003e988008000780044
:103164001000e000f7ff3200110090001001900001
:103174009200980064804000800f510002003a00e1
:10318400120190009200980011009000300090000d
:1031940010e9880010017800c008900002000100c6
:1031a400080037000400e000060032006a20b9007d
:1031b400e2cb210000004100840178000001eb0013
:1031c400e4ff37000080fa00000006000000fa0067
:1031d400889fbe0088cc2100c9cd2100080078005a
:1031e400a60407006a044400888f5400fbff3a00d9
:1031f400e0cb2100a104070040cb21009f0407007d
:1032040060ca21009d040700e0cb210090e58800fe
:1032140040cb210080e588004f04be000080fa0006
:10322400000006000000fa00889fbe008a9fbe00ce
:103234008c1f78008005780001047800020578006e
:10324400c0012000fa050700800478000080eb002c
:103254000900e00024003200221de20002003a00ce
:1032640019e98800d9ff0700e10f54000300360074
:10327400180020003c002000010037006406140000
:103284000000eb00d00c9800b80c9800ca0c980011
:10329400090578000b1d78000a00780080040700f7
:1032a4006c844400080078007d040700c904980079
:1032b400990c98000c0c7800b908900000e9800083
:1032c400808f50000100360001e988003909900020
:1032d4006a11b90080cc2100020040008a00780005
:1032e40074040700100020004f0678004f05be004c
:1032f4004f04be000080fa00000006000000fa003f
:10330400889fbe00900078000100e00002003a00af
:10331400810478000200370030009000b00490006f
:103324006c84440008007800880407008800780052
:1033340060ca21005f040700b908900010e980000a
:10334400300890000001eb00808f5000010039002c
:1033540012002000020078004f04be000080fa0032
:10336400000006000000fa00881f78008a9fbe0053
:103374000005be0002047800c922a800cb02a80000
:10338400300020004036880090002000203588005e
:103394001100200002007800abf90700b0e98800b2
:1033a4001100200008007800a7f90700a0e98800b0
:1033b4002062a9002002a90090cfb3002062b600c9
:1033c40020a2a90020c2a90020e2a900c0cfb30016
:1033d4002162b6002182a90021a2a90021e2a8004d
:1033e400e00f5500e08f5d00030035000a00be00c9
:1033f400abf40700090037006100650001002000fc
:103404008b01d1000a81d300020070008380700018
:10341400a3f407000001be00cdf407000200200061
:103424000318240027f507000001be0000682900e6
:1034340081c1240057f507000200200003f0230097
:10344400c2f4070095f5070040118800f0c3b300eb
:103454002262b6002342a80023c2a90023a2a90025
:1034640023e2a90042a0a8008560a9008580a900e4
:10347400a9c0bf00f1c8b300014060000044a0002f
:10348400a9e0b700aac0bf0081cfb300014060002b
:103494000004a000aae0b7009580a8009560a800e9
:1034a40022c2bf000008a3000400320030118000d3
:1034b40022c2bf000008a300fcff3a001000200055
:1034c40090e988000000eb004f05be004f0478002f
:1034d4000080fa00000006000000fa00b0e9800055
:1034e4008001eb0069fa0700800078000000ea0020
:1034f400010070004f00de000080fa0000000600aa
:103504000200fa00014f7800a0e980008001eb007e
:103514008e007800c5fa07008000eb00e10f500030
:1035240006003a0011002000321de20003003200c0
:10353400323def008580a8001100200001007800d2
:103544000080fa00000006000000fa000080fa0083
:10355400000006003600f800809fbe00829fbe0077
:10356400849fbe00869fbe00881f78003400f80048
:1035740000002000a00188000400fa000000eb0015
:10358400100798008560a90022c2bf000008a300ac
:103594000b0032000e04780030118000004f7800d8
:1035a400b0e980008001eb000e81e800880078001b
:1035b400a3f9070022c2bf000008a300f6ff3a00e7
:1035c4001e0090000000e0000300320050230200bf
:1035d40000000000000000000080fa003400f90040
:1035e4004f0478004f03be004f02be004f01be00df
:1035f4004f00be003600f900004006003600f80017
:10360400809fbe00829fbe00849fbe00869fbe0036
:103614003400f80000002000a00188000400fa0033
:103624000000eb00100798008580a90023c2bf00aa
:103634000018a3000e003a00a0e980000e81e80003
:103644008e007800b8f90700e10f500006003a0038
:103654001e00fb002011880023c2bf000018a30035
:1036640003003a00f4ff37001000200090e98800be
:103674001e0090000000e00003003200502302000e
:1036840000000000000000000080fa003400f9008f
:103694004f03be004f02be004f01be004f00be00ec
:1036a4003600f900004006000000fa00889fbe00c2
:1036b4008004780001047800914078000104e0005f
:1036c400060032000001eb00090078008cff0700bf
:1036d400d84078000104e000faff3a004f04be002d
:1036e4000080fa00000006000000fa00889fbe0077
:1036f4008a9fbe008c1f78000006780060002000be
:10370400cb04070080047800210020001000200072
:10371400cdf80700800c78008b3e20009b049800b5
:1037240020ce2100a004980060002000c0040700ff
:1037340000057800190878000004eb0018009800d0
:10374400c0cd2100200598008003eb000803780019
:10375400880278000c027800890178009206200023
:1037640021692800e0c821004df807008003eb0020
:103774000803780088027800080278008a0178003b
:1037840092062000a169280000c6210044f8070021
:1037940060002000a60407008004780021002000b7
:1037a40010002000a8f80700800c78009804980006
:1037b400e0cd2100a0049800600020009c040700d4
:1037c40000057800190878001b00980040ce2100fd
:1037d400200598008003eb00080378008802780035
:1037e400080278008901780092062000216a2800e6
:1037f400e0c821002af807008003eb0008037800e2
:10380400880278000c0278008a0178009206200071
:10381400a16a280000c6210021f8070060002000ea
:103824008304070080047800210020005000200059
:1038340085f80700800c78009b04980000ce2100d6
:10384400a0049800600020007904070000057800b7
:10385400190878001b00980060ce2100200598000c
:103864008003eb00080378008802780008027800df
:103874008901780092062000216b280000c62100ef
:1038840007f807008003eb0008037800880278003b
:10389400080278008a01780092062000a16b2800b3
:1038a400e0c82100fef707004f0678004f05be0070
:1038b4004f04be000080fa00000006000200fa0077
:1038c400889fbe008a1f78008000eb00010f7800fb
:1038d400000478000e0578008104780001003700a8
:1038e4001900200018019000180078008001eb00f6
:1038f4008a007800cdf90700e10f5000f8ff3a0084
:103904000900e00002003a00280090001008e800d6
:103914001e0fe800f3ff37000200fa00889fbe0084
:103924008a1f7800000478008004eb000905780001
:1039340002003700800478001a002000180190006b
:10394400180078008001eb008e0078004ff9070022
:10395400e10f5000f9ff3a001e007800808f5400f8
:10396400f4ff3a000a00e00002003a002800900048
:103974001008e8008904e800f0ff37000000fa00ae
:10398400170020008000eb00e4ce210083ce21004c
:1039940026ce2100c5cd21000180400060007b00bf
:1039a40004017800940f500001003a008003eb00fa
:1039b4000180400060097b0060807a000301780088
:1039c400930f500001003a008003eb000180400097
:1039d40060897a008100e8000482e8008381e800bd
:1039e400e38f5000ecff3a00070078000080fa00f3
:1039f400000006000000fa00889fbe0080047800e2
:103a0400e80f50000100360089002000210020004a
:103a1400100020000cf8070000ea88000000e00015
:103a24000e003a00100037000004eb000801780093
:103a34008000eb00c0d32100fafd07000804e80071
:103a4400888f5400f9ff3a000001eb0011002000b8
:103a540040da2100f3fd0700030037000900e0000d
:103a6400f9ff3200f0ff37004f04be000080fa0077
:103a7400000006000200fa00881f7800010f780099
:103a840000047800d008900000102000808f5000bf
:103a94001300320003003e000100e0000700320082
:103aa4002500370010102000808f500018003200cd
:103ab40073004000808f50001f003a0000ea80002d
:103ac4000001eb008e007800c4f90700e40f400009
:103ad40007003a0000102000500c98001600370030
:103ae40000ea80000001eb008e007800bbf90700bb
:103af400e50f400003003a0010102000500c98001d
:103b04000d003700e10f5000010032003e3def0090
:103b14001e00780000004000216c280060807800be
:103b24000000e000020032008000eb00f6fc070019
:103b340040112000500c98004f0478000080fa00d7
:103b4400000006000200fa00881f780000047800d4
:103b5400d008900000142000808f50000e00320026
:103b64000000e800808f5000180032000100e000df
:103b740019003a0000ea80000081eb008e00780012
:103b8400c6f90700e40f400007003a0000142000c3
:103b9400500c98001000370000ea80000001eb0090
:103ba4008e007800bdf90700e50f400003003a00dd
:103bb40010142000500c980007003700e10f50004b
:103bc400020032003e3def00eaff37001e0078009d
:103bd40050030700e7ff37004f0478000080fa0025
:103be400000006000000fa00f0e980000080fa00fe
:103bf400000006000000fa00ca42a900c842a90059
:103c04000080fa00000006000000fa00c842a80084
:103c14000080fa00000006000000fa00c842a90073
:103c2400614060004200dd00a12c2000914078003a
:103c34000124a10080c0700001007800cae2b7002e
:103c44000080fa00000006000000fa00cac2bf00ab
:103c54004200de00610060000080fa0000000600ff
:103c64000000fa00e8ff0700e2ff070060222000de
:103c74005efb0700e4ff0700600420005bfb070015
:103c8400401f200059fb0700dfff07000080fa00f7
:103c9400000006000000fa00889fbe0000047800bf
:103ca4008004eb00d3ff0700200020004ffb070037
:103cb40061006400d8ff07000884d100c00320001d
:103cc4004afb0700d0ff07002000200047fb070045
:103cd4008904e800e88f5400f2ff3a004f04be0064
:103ce4000080fa00000006000000fa00889fbe0071
:103cf4000004eb0089002000beff07002000200024
:103d04003afb0700c0ff07008000200037fb0700d4
:103d14000884d100ccff07004700dd0000047400d4
:103d24008007200031fb07008904e900f2ff3a0014
:103d3400080078004f04be000080fa00000006006e
:103d44000000fa00889fbe00c5ff0700c00c2000d9
:103d5400d0ff070040042000ceff0700e2ff070069
:103d64000000e000fdff3200bdff0700c00c200092
:103d7400c8ff0700e00b2000c6ff0700daff0700ba
:103d840080047800d8ff070000047800d6ff0700fd
:103d9400d5ff0700d4ff0700d3ff0700d2ff0700b9
:103da400d1ff07004840dd0000804400cf80de00e2
:103db4003bf207000200200003d82300c1f20700f1
:103dc4004f04be000080fa00000006000000fa0064
:103dd4002c83a80068c0a8008bff0700ca42a80073
:103de4000080fa00000006000000fa00d4ff07007b
:103df400a00f20004ef50700fcff37000000fa007a
:103e04000001eb00216628000000eb0026fe0700fd
:103e1400a00f200046f50700f9ff37000200fa0062
:103e24002a1dec0050e9880061d2210042010700fc
:103e34000001eb0061d221000000eb001afe070034
:103e44000081eb008e0078000000eb00a2fd07006b
:103e5400f3ff37000000fa0090022000303a880097
:103e6400764040004467b60000ceb3004467b60015
:103e740012002000a10920008007200033742000d4
:103e840080497800814978008249780071052000d2
:103e94006004200023742000804978008149780060
:103ea4008249780043c7bf000047b200f04f50007a
:103eb400fcff3a0042c7bf000058a300fdff3200d8
:103ec4000080fa00000006000000fa002ca3ef00b6
:103ed4006d020700dfff070071fb070010002000e0
:103ee4003ffb070050662800aefb070020002000bf
:103ef4003bfb0700c0662800aafb0700d100200096
:103f040010002000bafb070030672800a5fb07005b
:103f1400e100200020002000b5fb0700c067280056
:103f2400a0fb0700a200200000582200010020008e
:103f34000cfd0700e4020700a4ff07008003eb0068
:103f44000003eb008602780034002000860178002c
:103f5400920620004168280000f0210050f6070076
:103f64008003eb000003eb008602780024002000ad
:103f740086017800920620008168280000f1210063
:103f840047f607008003eb000003eb00860278008d
:103f9400240020008601780092062000c1682800d1
:103fa40060ef21003ef6070095f607000000eb00e5
:103fb4000080fa00000006000000fa0057fc070029
:103fc4000080fa00000006000000fa00881f780054
:103fd400000478000202be0071e98800820120001a
:103fe4000400be00dffc07008003eb000003eb00cd
:103ff400860278000802e900860178009206200013
:10400400016e28000002220025f607008003eb0061
:104014000003eb008602780008027800860178002d
:1040240092062000616e2800c00522001cf60700dd
:104034004f0478000080fa00000006000000fa0037
:10404400889fbe0099c5b30018c4b30080e98000fe
:104054000001eb008840780029fd0700e10f5000c3
:1040640002003a0070e980002a0207000844e800d0
:10407400894f5400f5ff3a0070e980008000eb009e
:104084000b020700fcf407006300400062092000f3
:10409400110009000280d80010032000808f500016
:1040a40001003e002103200001007800a0f4070075
:1040b400e5ff37000200fa00889fbe008a9fbe0019
:1040c4008c1f78000005eb000a06780099c5b30040
:1040d4008bc5b30018c4b30080e980000081eb00f5
:1040e4008e007800fcfc07000000e00004003200b1
:1040f4009e4f14000b003a002e1dec000502070031
:104104000844e800894f5400f3ff3a002e1dec00e8
:104114008000eb00e6010700e10f55000c003a00b7
:10412400060037001a002000f8ff370080e98000fd
:104134000081eb008e007800e7fc07009ecf15009d
:10414400faff3a000c06e8000005eb00e1ff370037
:10415400e10f5600dfff3c002c3dec00ddff370093
:104164000000fa0061e980000000eb0060e98800cb
:104174000100e00001003a0010c0b3000004a200f6
:104184000080fb000080fa00000006000000fa0036
:10419400010878008000eb001100980021009800cd
:1041a40032009800e8004000c0622800226628001f
:1041b400b0187800800f5100fdff3a002002800003
:1041c4008008780034c0bf000080fb009000980095
:1041d4000000eb00a0009800668040000080fa0018
:1041e400000006000000fa000000eb002008880030
:1041f400000888008038210010088800a5c0bf008e
:10420400f1c8b300014060000044a000a5e0b7007d
:104214008460a9009460a8000481a80004a1a900f6
:1042240005e1a80040e88000900778004f0078007e
:10423400e0e988003400f9004400f9004000f90086
:104244003e00f9003c00f9003a00f9003800f9009a
:104254002c00f9002a00f9002800f9002600f900d2
:104264002400f9002200f9003200f9003600f900b8
:104274004f0778004f06be004f05be004f04be0036
:104284004f03be004f02be004f01be004f00be00f0
:104294004200f90000000600100020000080fa002f
:1042a400000006000000fa000080fa00000006008a
:1042b4000000fa0042a0a8003c3dec000080fa0097
:1042c400000006000000fa003c1ded00e0e9880053
:1042d40001003a0042a0a9000080fa000000060094
:1042e4003600f800809fbe00829fbe00849fbe00ff
:1042f400869fbe003400f80000002000a001880062
:104304000000fa008460a90088f30700502302002b
:1043140000000000000000000080fa003400f900f2
:104324004f03be004f02be004f01be004f00be004f
:104334003600f90000400600881f7800801f7800ce
:104344000001eb000200e6000000ea000002eb00be
:10435400530020000004eb000e00080019000000c8
:1043640000f0a700610272006f03620003b0e60070
:10437400630242004419dd00050f200005036200ba
:1043840002b0e6000403b0004411dd00c42add00dd
:104394000503620002b0e6000430b0000700230009
:1043a400c42add00050362004c33de0003b0e600de
:1043b400070242004100dd004f21de004144dd00e0
:1043c400020474004122dd0000f0a70061027200c3
:1043d4004f0078008002eb008001eb0003c0e7008f
:1043e4000500370003a0e7000300370002032000a4
:1043f400825878001d0037000003eb00d302200030
:104404000600e600835878006f0164000610e70098
:10441400030037000203b000825878001500200022
:104424000003eb00030008000f00000002002f004f
:1044340082016200cc19de000618e7000400370090
:10444400030178000203b0008258780015002000b0
:104454006128e10004003a000698e70002003700f2
:1044640002032000825878004422dd008001eb0022
:10447400834878004f047800000006000000fa002a
:10448400e4004000110098008088eb00310098009f
:10449400410098000008eb000080fa0000000600cc
:1044a4000000fa008000eb00410098000080fa0050
:1044b400000006000000fa00900190001301900033
:1044c4009200980010019000a2009800130190003f
:1044d400210198009101980011009800c0009800f3
:1044e4001008e8000080fa00000006000000fa004e
:1044f4000002780091017800e18f410002003a0047
:104504004001900008003700640140001200900050
:10451400908f5100040039001201900012009000a5
:10452400908f5100fcff3100120090009000980021
:1045340021009800a200980011019800c40098007e
:10454400140ae8000080fa00000006000000fa00e7
:104554008000780010009000210190002200980053
:10456400a101900090019800410190001200900078
:10457400810f500001003a00130198000000eb0085
:10458400c00098001209e9000080fa00000006004b
:020000040000fa
:10459400241d00000800000000000000f41c0000be
:1045a40016000000020000000000000000000000ef
:1045b40000000000000000000000000000000000f7
:1045c4000000000000000000521c00005400000025
:1045d400000000003c1d000002000000020000007a
:1045e400ef0000005008000002140000000000006a
:1045f400dc1c000018000000000000001a1d000070
:104604000a0000000200000000000000000000009a
:104614000000000000000000a61c0000360000009e
:10462400000000003e1d0000020000000200000027
:1046340001000000401d0000020000000000000016
:10464400421d000002000000000000000a1d0000de
:104654001000000000000000441d000002000000e3
:1046640000000000461d00000200000002000000df
:1046740000000000381d00000400000000000000dd
:104684002c1d00000600000000000000321d000088
:0c46940006000000000000000000000014
:020000040000fa
:1046a0004200f800801f78000002200010028800fd
:1046b000811f7800829fbe00849fbe00869fbe003f
:1046c000889fbe008a9fbe008c9fbe008e1f780010
:1046d0003600f8003200f8002200f8002400f8004c
:1046e0002600f8002800f8002a00f8002c00f80046
:1046f0003800f8003a00f8003c00f8003e00f800ee
:104700004000f8004400f8003400f800e0e98000c0
:10471000801f780040e880000f087800580a0200e7
:104720000000000040e88000900778004f0078000b
:10473000e0e988003400f9004400f9004000f90085
:104740003e00f9003c00f9003a00f9003800f90099
:104750002c00f9002a00f9002800f9002600f900d1
:104760002400f9002200f9003200f9003600f900b7
:104770004f0778004f06be004f05be004f04be0035
:104780004f03be004f02be004f01be004f00be00ef
:104790004200f900000006000000fa008003eb0070
:1047a0000003eb00860278000002780043d4210069
:1047b00092062000c16e2800403e220039f4070016
:1047c0000080fa00000006000400fa00889fbe0086
:1047d0008a1f7800000578008004eb00d8ff2f00c6
:1047e0000100370019002000b00720000100200060
:1047f000008fbe0070442900310020001e0f4000d1
:104800005e9748001e00be000801b80000825100fb
:104810000888b90080014200028fbe001e00be0061
:1048200072002000030020007fef0700008fbe0011
:10483000b0712700e1ff2f00be0f1000ae8f1800ef
:10484000e8ff3a000900e000e7ff3a0099fe0700a0
:1048500010002000000d78009bfe0700e2ff3700eb
:104860000000fa0021ea80000000eb0020ea880046
:104870000100e00001003a0010c0b3000004a200f3
:104880000080fb000080fa00000006000000fa0033
:104890008000eb00410388005103880040002000a5
:1048a000401688005116880011ea88000080fa003e
:1048b000000006000000fa00881f780012002000a7
:1048c0000014dd000100e0000700320079fe07005f
:1048d00008007800421db70010ea880050168800d2
:1048e00079fe07000900370072fe07000800780013
:1048f0000080ea008180ea0012ea80000001610085
:1049000012ea8800521688006ffe07004f047800f4
:104910000080fa00000006000000fa00881f7800fe
:1049200011002000000cdd0062fe070012ea80008a
:104930000200640007003200080078000080ea00ee
:104940008180ea000000610010ea880050168800ab
:10495000030037000200740010ea88005016880037
:1049600059fe07004f0478000080fa00000006009e
:104970000000fa008000eb0081088800f108880040
:1049800031088800a10888006101b80000a0250056
:104990002126200033ef0700600888001aa1ef00ed
:1049a000a7c0bf00f1c8b300014060000054a000e0
:1049b000a7e0b70084e0a90094e0a80011e1a800f6
:1049c0001fe1a8000080fa0000000600809fbe00e2
:1049d000821f78003400f80000002000a001880049
:1049e0000000fa00a2088000c0e98000e40f500037
:1049f00007003600d0e980008000510030ea8000d6
:104a0000808f50000400360031ea88000200370031
:104a10000000e800c0e98800d2e9880084e0a9002d
:104a20000080fa003400f9004f0178004f00be000a
:104a3000004006000000fa00881f7800000478009b
:104a40000008a300020032000000a1000084e8007a
:104a5000e8f007008242800082004400f03f21001d
:104a6000808f500006003e00810f5100040031008d
:104a700020852000000441008142880001003700a9
:104a80000004eb00e7f10700080078004f0478000d
:104a90000080fa00000006000000fa000080fa0022
:104aa000000006000000fa005028ef000080fa0025
:104ab000000006000000fa00004021008142800052
:104ac000010050000080fa00000006000000fa001b
:104ad00000402000c822b600f0c0b300c061b6009c
:104ae000c0cfb300c061b600c3e1a9000000280038
:104af000c221b60000532700d00e880000e2240037
:104b0000200e8800c941a800c8c1a800c841a9005a
:104b1000ca01a80000cfb300cb61b600c1e1a80074
:084b20000080fa00000006000d
:020000040000fa
:044b28000000fe008b
:00000001FF
