:020000040000fa
:080000000002040000000000f2
:020000040000fa
:100400008fd42100007f240000018800000000003c
:100410000c000700c0292200010020001100070085
:10042000000020000000e000020032000000020096
:10043000000000009c1f0200000000000040da00e5
:100440000000fe004440a900800c20000000e000f5
:100450000300320000002000a00188004440a800f2
:100460000000060091018800800078000000eb0089
:1004700015003700e280400032a0b4009101ba00bc
:10048000e280400032a0b4009102ba00e280400055
:1004900032a0b4000002eb00472bde00f507b200eb
:1004a000602ce10004003a000059eb008301e900f0
:1004b000fdff3e00040037006128e100010032002a
:1004c0000082eb00040007001101ba000200e00006
:1004d000e8ff3a00000006003159ba008301e90044
:1004e0000c0032002159ba008301e90008003200f3
:1004f0000400e00003003a00e280400032a0b400b3
:10050000f5ff370011d9ba008301e900faff3a007c
:100510008100e800e180400032a0b4000000060045
:1005200000000000000000000000000000000000cb
:1005300000000000000000000000000000000000bb
:1005400000000000000000000000000000000000ab
:10055000000000000000000000000000000000009b
:10056000000000000000000000000000000000008b
:10057000000000000000000000000000000000007b
:100580008001eb000200370061f079008301e80090
:10059000828f5100fcff3a00000006008001eb0052
:1005a00002003700817178008301e800828f5100da
:1005b000fcff3a000000060000037800800178008c
:1005c0000002eb00010037008059780084025100de
:1005d000820f52000900320064c078000402e80073
:1005e0000004e000f8ff3a00830078008058eb0038
:1005f00005804100808f5000fcff3a000600780023
:100600000000060080007800010037000000e800cc
:100610001004e000fdff3a00010050000000060059
:10062000839f68000100e00002003d0060001000b0
:10063000e08018000300e00002003d0060011100ae
:10064000e0811900050007004f00e00002003b00b8
:1006500060001000e0801800000006006022b80072
:10066000060220000000d0008180d2000482d20067
:100670008582d2000000a0000202520083825a004c
:10068000030031000202420083824a000000a10000
:100690000603e900f3ff3a0000000600889fbe0051
:1006a0008a9fbe00010578000100e00004003500cb
:1006b00008003c000000e000200032000500370088
:1006c00060001000e080180002003b0001f02c00e8
:1006d0001a0037000004be006011b8006b0920004a
:1006e0000982cf00020039000882cf000441b00027
:1006f000694252000e00320008003b008281710006
:10070000610164008904d1000884d3008b05e800ee
:100710000442e800f9ff3a000500370008044400ed
:1007200089844c008b05e9000442e900fbff3a0094
:10073000f40007000af0a70001f0a0004f05be007a
:100740004f04be000000060003f0a200889fbe0018
:100750008a9fbe008c1f780010010700170133002c
:100760006450e1004f0032006420e100520032008a
:1007700003826c0007003b000905d0000306d0008f
:10078000820f54000c065d000200390002003200a6
:1007900089017800030678008582550004003d0039
:1007a0000003fd008103fd008502ea008b85420005
:1007b000840f720002003b0060001000e08018000f
:1007c0006011b8000005eb007a28e1000a0039004a
:1007d00006007800c75ddd00f707b200878075006e
:1007e0002d003700828171000a01780061056000e8
:1007f0008180d1000080d3008502e900f9ff3b0031
:10080000060440008784480002003b006004140096
:10081000e0841c000988a300070032008a8171006f
:1008200082817100610164008904d1000884d300d1
:100830008b05e800170037000978a30013003a0081
:100840000b00e000130034008b05e90008044400ad
:1008500089844c000a4474000978a3000d003a0012
:100860000b00e000070034008b05e9000804440099
:1008700089844c0001003a000b0020000978a30095
:10088000f7ff32000001eb000200370082817100a7
:100890000a0178009b0007000cf0a70001f0a000ff
:1008a000cf0037006420e10002003a00838f6c0023
:1008b000cf0033000801be000200be00c8003700b0
:1008c000889fbe008a9fbe008c1f7800b30007007f
:1008d000ba00330003866c006450e100240032004b
:1008e0006420e100270032006150e1002200320064
:1008f0006120e100210032008b854200eb07b1004e
:100900000134b800003ab8000804420089844a0063
:10091000013ab8000030b8008880400009014a0060
:1009200004003300000040008180480002014900bb
:100930008b05e900c909dd00830170000100320068
:1009400013002000c814de004814dd004709de0053
:100950001200b200c808de000884700069000700b9
:1009600001f0a1000cf0a70001f0a0009c003700ee
:100970006120e1009e0032000801be000200be00be
:10098000f7ff37006150e100fcff3a0098003700a4
:10099000889fbe008a9fbe008c1f78007f000700e2
:1009a0008600330003866c006450e1002e003200a4
:1009b0006420e100330032006150e1002f0032007a
:1009c0006120e1003100320085855500eb07b00061
:1009d0000900200008042000050037000804440036
:1009e00089844c000a0031000603430087834b00d2
:1009f0000001530081815b00f8ff33000203be0059
:100a00000800a0000804440089844c00f6ff390067
:100a1000c639dd008301730001003200130020009d
:100a20008904d1000884d3000998a300050032008e
:100a30000800a7000300a0008904d1000884d300a7
:100a40008b05e8008904d1000884d3000001eb0085
:100a50000281d2002b00070001f0a1000cf0a700da
:100a600001f0a0005e0037006420e1006000320069
:100a70000801be000200be00f7ff37006120e10060
:100a80005b0032006000b800f3ff37000000200078
:100a900001f82700f0ff37000001be0057000700f3
:100aa0000470a70003f0a10003f8a30013003a00ac
:100ab0006509b10010003200090035006928e10025
:100ac0000200350001002800000005000000400081
:100ad000818048008502e900fcff3a000000060022
:100ae000f88f4200050035008100d1000080d3005e
:100af0008502e800fcff3a00000006008000eb00e1
:100b00000000050081002000618055000b003d00c1
:100b10000b00200061fe2f000100e1001d003400e9
:100b200082817100610164008904d1000884d300ce
:100b30000000e800faff3a00710020006100640044
:100b400003007000020060000900320061044400ec
:100b5000e0844c000988a500050032008b05e80000
:100b60006808e10002003a008904d1000884d3003b
:100b7000f20f20000258e10005003d00c75ddd00d6
:100b8000f907b200898075000800780000000600af
:100b90000bf827008b007800000005000004be0061
:100ba000160007000003be000405be000200be00e0
:100bb00012000700844f7500000006000200be000e
:100bc0006450e100050036006420e10002003600b8
:100bd0000968a30001003a000800be000160a000ff
:100be0004f0678004f05be004f04be00000006000f
:100bf000f0ff2f00f1ff2700f9ff3700c70ade00e2
:100c0000f107b200f50fb20008003200e1cf420058
:100c1000020032000170a00024000500810f700066
:100c2000010032000408050044000500810f700037
:100c300002003a00140005008502e90000004000af
:100c400081c04800fcff3b000170a00024000500ab
:020000040000fa
:0200000401f009
:04000c00f8ff0000f9
:020000040000fa
:0200000401f009
:040010007fff00006e
:020000040000fa
:0200000401f009
:040014007fff00006a
:020000040000fa
:10000800ea230000ea230000ea230000ea230000b4
:10001800ea230000ea230000ea230000ea230000a4
:10002800ea230000ea230000ea2300000a1f000078
:10003800ea230000ea230000ea2300003c23000032
:10004800ea230000ea230000ea2300002e1a000039
:10005800821a0000ea230000ea230000ea230000d5
:10006800ea230000ea230000ea230000ea23000054
:10007800ea230000ea230000ea230000ea23000044
:10008800ea230000ea230000ea230000ea23000034
:10009800ea230000ea230000ea230000ea23000024
:1000a800ea230000ea230000ea230000ea23000014
:1000b800ea230000ea230000ea230000ea23000004
:1000c800ea230000ea230000ea230000ea230000f4
:1000d800ea230000ea230000ea230000ea230000e4
:1000e800ea230000ea230000ea230000ea230000d4
:1000f800ea230000ea230000ea230000ea230000c4
:10010800ea230000ea230000ea230000ea230000b3
:10011800ea230000ea230000ea230000ea230000a3
:10012800ea230000ea230000ea230000ea23000093
:10013800ea230000ea230000ea230000ea23000083
:10014800ea230000ea230000ea230000ea23000073
:10015800ea230000ea230000ea230000ea23000063
:10016800ea230000ea230000ea230000ea23000053
:10017800ea230000ea230000ea230000ea23000043
:10018800ea230000ea230000ea230000ea23000033
:10019800ea230000ea230000ea230000ea23000023
:1001a800ea230000ea230000ea230000ea23000013
:1001b800ea230000ea230000ea230000ea23000003
:1001c800ea230000ea230000ea230000ea230000f3
:1001d800ea230000ea230000ea230000ea230000e3
:1001e800ea230000ea230000ea230000ea230000d3
:0801f800ea230000ea230000e5
:020000040000fa
:10020800ea230000ea230000ea230000ea230000b2
:10021800ea230000ea230000ea230000ea230000a2
:10022800ea230000ea230000ea2300000a1f000076
:10023800ea230000ea230000ea2300003c23000030
:10024800ea230000ea230000ea2300002e1a000037
:10025800821a0000ea230000ea230000ea230000d3
:10026800ea230000ea230000ea230000ea23000052
:10027800ea230000ea230000ea230000ea23000042
:10028800ea230000ea230000ea230000ea23000032
:10029800ea230000ea230000ea230000ea23000022
:1002a800ea230000ea230000ea230000ea23000012
:1002b800ea230000ea230000ea230000ea23000002
:1002c800ea230000ea230000ea230000ea230000f2
:1002d800ea230000ea230000ea230000ea230000e2
:1002e800ea230000ea230000ea230000ea230000d2
:1002f800ea230000ea230000ea230000ea230000c2
:10030800ea230000ea230000ea230000ea230000b1
:10031800ea230000ea230000ea230000ea230000a1
:10032800ea230000ea230000ea230000ea23000091
:10033800ea230000ea230000ea230000ea23000081
:10034800ea230000ea230000ea230000ea23000071
:10035800ea230000ea230000ea230000ea23000061
:10036800ea230000ea230000ea230000ea23000051
:10037800ea230000ea230000ea230000ea23000041
:10038800ea230000ea230000ea230000ea23000031
:10039800ea230000ea230000ea230000ea23000021
:1003a800ea230000ea230000ea230000ea23000011
:1003b800ea230000ea230000ea230000ea23000001
:1003c800ea230000ea230000ea230000ea230000f1
:1003d800ea230000ea230000ea230000ea230000e1
:1003e800ea230000ea230000ea230000ea230000d1
:0803f800ea230000ea230000e3
:020000040000fa
:100c50001111000022220000333300004444000040
:100c60005555000066660000777700008888000010
:100c700099990000aaaa0000bbbb0000cccc0000e0
:100c8000dddd0000eeee0000cecd0000acab0000dc
:100c90000202000003030000040400000505000038
:100ca0000606000007070000080800000a09000007
:100cb000101000001011000012120000514300003b
:100cc0006f6e0000734200003100000051500000c0
:100cd000726f0000644200003200000051500000ba
:100ce000726f0000644200003300000051430000b6
:100cf0006f6e00007342000034000000515000008d
:100d0000726f000064420000350000005143000093
:100d10006f6e000073420000360000005431000086
:100d200000540000617300006b3100003a000000c5
:100d300054610000736b0000323a0000004600006e
:100d40007265000065520000544f0000530000001f
:100d5000303100002e320000303100003100000040
:100d60005473000031000000547300003200000092
:100d700096000000c8000000fa0000002c010000ee
:100d80005e01000090010000c2010000f4010000bb
:100d900042540000657300007431000000420000fe
:100da000546500007374000032000000434f0000df
:100db0004d54000078000000434f00004d520000e9
:100dc00078000000496e0000744d0000617400005e
:100dd00068000000494400004c450000000000008d
:020000040000fa
:100de0000000fa005a3cec000080fa000000060007
:100df0000000fa00889fbe008a1f78000005780076
:100e000081047800e38f5000010036003900200093
:100e1000f40b0700c0e980008a0f500002003a007e
:100e20000005eb00020037000a00e00002003a0073
:100e3000c8e98000010037000a047800b808900073
:100e4000818f540024003200030036000a00e000c5
:100e500003003a00040037000a00e00002003a00f4
:100e60001a002000010037000005eb00390c980043
:100e700064801400600498006a09b90020c9210048
:100e800002004000d8009000808f50000d003a0012
:100e90008884e80009007800e20c0700b808900098
:100ea000c0e28000808f500001003600c1e288005f
:100eb0006a09b90020c921000200400089007800b9
:100ec000b20c0700e10f550003003a003421020084
:100ed0000000000000000000c70b07004f0578006d
:100ee0004f04be000080fa00000006000000fa0077
:100ef000889fbe008a1f780080047800b90b070025
:100f0000c0e98000890f500002003a008004eb0025
:100f1000020037000900e00002003a00c8e9800042
:100f200001003700090478000885e8000a0078000d
:100f3000bc0c0700280890000000e000020032000e
:100f40006c004400b70c07008a00780060c62100de
:100f50008e0c0700a80b07000900e00003003a0010
:100f60003421020000000000000000004f0578005e
:100f70004f04be000080fa00000006000000fa00e6
:100f800000017800d000900060c62100808f5000e2
:100f900007003a00a208900000c72100808f50008f
:100fa00003003200100020000100e00001003200c8
:100fb0000000eb000080fa00000006000000fa00cc
:100fc000889fbe00000478000000e0001e00320090
:100fd000c0e98000800f54001b003200810b070025
:100fe00008007800e5ff0700e10f500015003a0007
:100ff0008884e800090078008a0c0700b80890008f
:10100000c0e28000808f500001003600c1e28800fd
:101010006a09b90020c92100020040008900780057
:101020005a0c0700c0e98000b80890003008900012
:10103000808f5000030039003421020000000000be
:10104000000000006c0b07004f04be000080fa0097
:10105000000006000000fa00889fbe008a1f78008a
:1010600000047800c5ff07000005eb00e10f500009
:101070001c003a00d1e280000100e00015003a00b7
:10108000c0e9800001057800b808900030089000a1
:10109000808f5000010039001a0020008884e80089
:1010a000090078005f0c0700b8089000c0e28000db
:1010b000808f500001003600c1e288006a09b90043
:1010c00020c9210002004000890078002f0c070091
:1010d00004003700ec00440000c721002b0c07007f
:1010e0000005eb000a0078004f0578004f04be00b1
:1010f0000080fa00000006000000fa0042a0a800ec
:10110000603cef00340b07000080fa00000006008e
:101110000000fa00881f78005a1ce2002b003a00f9
:10112000543cec00541ce20005003a00e0e380006f
:10113000d1e38000e1e38800d0e38800563cec0076
:10114000e0e380001000e00022003a002a003700af
:1011500098009000a0e28000808f500026003e00a2
:101160000880e8002f0c0700280890000000e0002d
:10117000020032006c0044002a0c0700b8089000fe
:10118000c0e28000808f500001003600c1e288007c
:101190008880e800380990006a11b90020c9210050
:1011a00002004000f90b0700e0e380001000e000bf
:1011b00011003200e0e38000300090003004900025
:1011c0000800e000e2ff3a000b0037005c3cec0056
:1011d00009003700e0e38000300090003004900008
:1011e0000800e0000400320098009000a0e28000b7
:1011f000808f5000daff36004f0478000080fa003c
:10120000000006000000fa00889fbe00f50a0700f3
:101210005a3ced00d0e280000000e00033003a00cc
:101220005e1ce200310032008004780015003700b7
:101230006c004400fb0b07000880e800f90b070076
:10124000b8089000c0e28000808f50000100360096
:10125000c1e288008880e800380990006a11b9006e
:1012600020c9210002004000c80b0700b808900008
:10127000c0e9800030089000808f500001003900e4
:1012800019002000701ce20005003200b0e380006d
:1012900030009000000478000000e000e4ff3a0015
:1012a0005c1ce20013003a000500370098ff0700bd
:1012b0005c3ced005c1ce20006003200fbff3700e6
:1012c000e18f54000300320090e28000e10f5000f3
:1012d00006003a00523cef003421020000000000fa
:1012e0000000000018002000050037000004eb009b
:1012f000030037005c1ce200f6ff3200ebff370012
:10130000bd0a0700080078004f04be000080fa0004
:10131000000006000000fa00889fbe0080047800ec
:101320000000e00016003200adfe0700a8e28000d9
:1013300008844400389dec00ba0b0700c0e9800027
:1013400018009800a0e28000800f540005003100d2
:10135000c1e98000d0e380008180e800990b07009c
:1013600004003700c1e98000e0e380008180e800ec
:10137000940b0700a3ff07000000e00003003a0001
:101380003421020000000000000000004f04be00f5
:101390000080fa00000006000000fa00889fbe00ee
:1013a00080047800010478008dfe07009900780021
:1013b00008844000a0e28000808f500003003600c7
:1013c000888f50000600360002003700888f5000da
:1013d00005003e00a0e28000800f540002003e00a5
:1013e0000000eb000100370010002000880c78009e
:1013f0000000e00010003200389dec00890b07006f
:10140000c0e9800018009800a0e28000800f54001e
:1014100005003100c1e98000d0e380008180e80050
:10142000680b070004003700c1e98000e0e380009a
:101430008180e800630b070072ff07000000e000f6
:1014400003003a0034210200000000000000000008
:101450004f04be000080fa00000006000000fa0001
:10146000881f78005f0a0700a8e28000620a070070
:10147000080078004f0478000080fa0000000600a1
:101480000000fa00f0e280000080fa000000060090
:101490000000fa005a1ce200150032001000200083
:1014a00090e2880019003700583ced00100037002a
:1014b000c0e280006a00b90022c92100800041001a
:1014c000110090001001900092009800648040008c
:1014d000800f510002003a00120190009200980023
:1014e0001100900030009000c0e98800070037002c
:1014f000c0e280006a00b90022c9210062007800c1
:101500000000e000e8ff3200e9ff37000080fa0049
:10151000000006000000fa00881f7800010478002f
:10152000c1e98000ec804000260b0700389dec00ec
:101530003c0b0700e10f440005003a00c1e98000c0
:101540008180e80060c62100100b07001000370002
:10155000a0e2800000004400c1e9800090009800f3
:10156000a1e28000810f500005003100c1e9800038
:10157000d0e380008180e800120b070004003700f0
:10158000c1e98000e0e380008180e8000d0b0700e6
:101590004f0478000080fa00000006000000fa0006
:1015a000881f780080007800100078000000e000bc
:1015b00002003a0000047800020037003100900079
:1015c000300490006c004400160b07005a1ce20027
:1015d0000e003a000880e800120b0700b8089000df
:1015e000c0e28000808f500001003600c1e2880018
:1015f0008880e800380990006a11b90020c92100ec
:1016000002004000e10a070003003700ec0044003c
:1016100000c72100dd0a070038089000c1e98000fa
:10162000b10890000001eb00810f5000010039006b
:1016300012002000020078004f0478000080fa00b9
:10164000000006000000fa00b1e280000108780006
:10165000a1e28000110098000080fa00000006005e
:101660000000fa00889fbe008a1f780000047800fe
:1016700001057800db0907001a0178008004eb00ff
:10168000e10f410014003200b0e28000980f10001a
:1016900004003200a1e2800018009000810f500089
:1016a0000c0036009800900001007800541cb50032
:1016b000800f51000700360001007800541cb5006f
:1016c000000d510008007800deff07008004eb00e9
:1016d0000100370019002000c70907000900780041
:1016e0004f0578004f04be000080fa00000006009d
:1016f0000000fa001000200090e288000080fa004c
:10170000000006000000fa0090e48000e10f5000a5
:101710000300360034210200000000000000000039
:10172000370a0700f8ff37000600fa00889fbe005e
:101730008a9fbe008c9fbe00000f78008105780054
:101740000204780013079800040678002507980023
:101750000605780000022000e10b070080047800f5
:101760000080eb000900e000710032000a00e00098
:1017700003003a0008004400d90b07000005780078
:10178000ca0c98000a00e00004003a000900780042
:10179000ec0b07000080eb006500370008044400f4
:1017a00008017800510a20000a0078007bfb07003e
:1017b000490d9000080445000884e900f80c9800e1
:1017c0007a804400420020008b0078007afb0700fa
:1017d0000040eb00d05c9800300020001b0020008f
:1017e000800f560002003e00e40516000c00780051
:1017f000b00c98008986e8000d0078005e0a0700aa
:101800006c844400080078005b0a0700c904980053
:101810000b0c7800990c98001e0190009e00780037
:101820000a00780026090700800c78006d0907007f
:101830005e3cec00f0e28000e10f500015003a0041
:10184000c9e9880028c92100aacb21000800780036
:10185000400a07006a044400880f5500fbff3a0065
:1018600080c821003b0a0700e0c72100390a0700b1
:1018700000c72100370a070060c62100350a0700ab
:1018800080c82100e0e38800e0c72100d0e38800a1
:1018900007003700601ce20005003a00c0e9800044
:1018a00030089000800f560001003900c9e9880017
:1018b000b908900020e38000808f500001003600be
:1018c00021e38800623cec00c0e28000808f500081
:1018d00001003600c1e288006a09b90020c9210070
:1018e000020040008d007800280a07004209070026
:1018f0002e0090000000e00001003200090878008e
:10190000601ce20009003200c0e98000300890004d
:101910008c0f50000500310034210200000000004f
:10192000000000001000200001003700100020001f
:101930004f06be004f05be004f04be000080fa00f7
:10194000000006000000fa008003eb000003eb003b
:101950008602780006027800860178009206200050
:10196000a16e280020b820006fff0700e10f500093
:1019700004003a0042a0a80000e38800543cef00b5
:10198000e50807000080fa00000006000000fa00e9
:10199000889fbe008a9fbe00800478000105780001
:1019a0000000e00024003200600220004c0b070021
:1019b000000478000000e0001f0032000ac8b900ef
:1019c000800578000000e800450b07000001780062
:1019d000000c78000000e000130032000b00400013
:1019e000100498000000eb00600c9800220498009e
:1019f0000900e90000d0b90000004100300498005f
:101a0000790c98000a1498000080eb0010149800dc
:101a10002014980068004400ce09070072004400ba
:101a2000cc0907000500370008007800450b0700c7
:101a30000004eb00010037000004eb000800780010
:101a40004f05be004f04be000080fa0000000600f3
:101a50000000fa00889fbe0000047800e10807003b
:101a6000e80890008004eb0078089000808f500018
:101a700001003a0019002000df0807000900780083
:101a80004f04be000080fa00000006000000fa00cb
:101a9000881f780000047800d2080700680c9000c6
:101aa000d5080700080078004f0478000080fa008d
:101ab000000006000000fa00600890000080fa00b4
:101ac000000006000000fa00881f7800000478007b
:101ad000100078001b0b070008007800190b0700a6
:101ae0004f0478000080fa00000006000000fa00b1
:101af000881f780000047800020078000811900028
:101b00000200e000190032000000e0000c003a0082
:101b1000280090009afa0700280090008810900092
:101b2000010040002004980098009000810f5000b0
:101b30000e00390018007800200498000b003700d0
:101b4000380090008efa070038009000881090004e
:101b50000100500030049800980f5000030031003d
:101b600018009000010050003004980068089000b0
:101b70000000e800600c98004f0478000080fa0034
:101b8000000006000000fa00889fbe0000047800f4
:101b9000010278008204780003017800e0089000d8
:101ba000700890008001eb00808f5000160031001b
:101bb0008400780008007800ccff0700281090000f
:101bc000e10f40000b003a00180890000000e00010
:101bd0000c0032007200440070fe07000000e000bc
:101be0000800320010002000800c7800800178008e
:101bf000050037000000e8002014980013002000c2
:101c00000100370013002000030078004f04be00dd
:101c10000080fa00000006000000fa0000017800d1
:101c2000810178001000e0000e00320030009000ca
:101c30008210900001004000300198009200900056
:101c4000810f500002003900120078003001980026
:101c500066004100900078000211900003007800b7
:101c600047fa07000080fa00000006000000fa00b2
:101c7000889fbe000004780082047800600890000d
:101c80000000e0001700320008007800e2ff0700c3
:101c9000680890000000e900600c9800181090009f
:101ca000e10f40000a003a00480090000000e00008
:101cb0000b0032006800440038fe07000000e0001e
:101cc0000700320010002000800c7800050037006b
:101cd0000000e800101498001000200001003700f8
:101ce000100020004f04be000080fa000000060033
:101cf0000000fa00881f7800000478003908070007
:101d0000281090000000e00029003c000d00370082
:101d1000180890000000e0000a0032007200440041
:101d20001efe07000000e0000100320070fe070008
:101d3000281090000000e900201498004240a900fb
:101d4000f3ff3c000080eb00201498002a080700f5
:101d500024080700181090000000e00018003c0064
:101d60000d003700480090000000e0000a0032003b
:101d70006800440009fe07000000e0000100320096
:101d80005bfe0700181090000000e9001014980096
:101d90004240a900f3ff3c000080eb0010149800c3
:101da000150807004f0478000080fa0000000600c4
:101db000180890000000e000e2ff3200d7ff370073
:101dc000480090000000e000f3ff3200e8ff370019
:101dd0000600fa00889fbe008a9fbe008c1f780014
:101de00080047800810578002207980003067800b7
:101df0000005eb00fb070700690890000000e00009
:101e00001f003200390490008b0078000900780030
:101e100081ff07000c00e0000b003a006908900009
:101e20000000e900e00c9800490090000000e0008c
:101e30001000320068804400d8fd0700e10f500018
:101e40000c003a0008003700b80498001908900008
:101e50000000e0000700320072804400cffd070060
:101e60000000e00003003200342102000000000006
:101e700000000000e00707001000200037003700d6
:101e80002e0490000800e00003003a00da07070083
:101e900008007800310037000a00e00003003a0033
:101ea0000e007800e7fd07001a002000d2070700a7
:101eb000cbfb0700cb07070019109000e10f400093
:101ec00002003a000000eb009014980029109000e6
:101ed000e10f400002003a000000eb00a01498005f
:101ee000c5070700e40047000e007800dcfd07008e
:101ef0000000e00015003a00ba070700690c9000e6
:101f0000bd0707000800e0000c003a00ae0090009a
:101f1000728044007ffd07000900780074ff07000d
:101f2000b8fc07000000e000b2ff3a0034210200d4
:101f30000000000000000000aeff3700090078003c
:101f40006bff0700affc0700aaff3700090078000d
:101f500067ff0700abfc07000000eb004f067800ae
:101f60004f05be004f04be000080fa0000000600ce
:101f70000600fa00889fbe008a9fbe008c1f780072
:101f80008004780001067800220798008305780015
:101f90000005eb0093070700e9089000790890001e
:101fa000808f5000110031000b0178008c00780008
:101fb00009007800cdfe0700190890000000e0003d
:101fc000070032007280440074fd0700e10f5000ea
:101fd00003003a003421020000000000000000006d
:101fe0008507070010002000360037002e049000ff
:101ff0000800e00003003a007f07070008007800af
:10200000300037000a00e00003003a000e007800bc
:102010008cfd07001a0020007707070070fb0700ff
:102020007007070019109000e10f400002003a000d
:102030000000eb009014980029109000e10f400080
:1020400002003a000000eb00a01498006a070700a5
:10205000e40047000e00780081fd07000000e0006a
:1020600014003a000900780079fe07000000e00043
:102070000c003200ae0090006880440025fd07008f
:10208000090078001aff07005efc07000000e0006e
:10209000c0ff3a00342102000000000000000000f0
:1020a000bcff37000900780011ff070055fc07004e
:1020b000b8ff3700090078000dff070051fc07004a
:1020c0000000eb004f0678004f05be004f04be0035
:1020d0000080fa00000006000000fa00e00890000e
:1020e0000100ea00010070004f00de0061001000f6
:1020f0000080fa00000006000000fa00e0089000ee
:102100000001eb0070089000808f500001003a0041
:1021100012002000020078000080fa000000060093
:102120000000fa00889fbe008a1f78000004780033
:10213000010578008204780042a0a80044fe070050
:102140000000e0000b0032000900e0000600320051
:10215000e8004400090078003c03070042a0a90001
:10216000c0ff2f001a00370042a0a9000000eb00ba
:102170001700370042a0a9000000000042a0a800fc
:10218000e8089000780890000001eb00808f500074
:102190000d0031000001eb008a0078000800780093
:1021a00052fe0700180890000000e0000500320011
:1021b0007200440013040700b2ff2f000000e0008b
:1021c00001003a001200200042a0a900020078009d
:1021d0004f0578004f04be000080fa0000000600a2
:1021e0000000fa00881f7800000478008101780060
:1021f00042a0a800600890000000e0000b003a0038
:102200000200e00006003200f20044000200780004
:102210000e03070042a0a900c0ff2f0027003700cf
:1022200042a0a9000000eb002400370042a0a90052
:102230000000000042a0a800680890000000e00034
:1022400002003a00800078001a0037003800900041
:102250008810900001004000300498009800900021
:10226000810f5000020039001800780030049800f7
:10227000680890000000e900600c980066004400c7
:10228000900078000811900003007800bcf8070067
:10229000480090000000e0000500320068004400a3
:1022a000d8030700b1ff2f000000e00001003a0052
:1022b0001100200042a0a900010078004f0478001e
:1022c0000080fa00000006000000fa00889fbe00af
:1022d000000478008101780082047800e008900012
:1022e00070089000808f50000f0031000001eb005b
:1022f0008300780008007800fcfd07000900e0007a
:1023000009003a00180890000000e00008003200c0
:1023100072004400bb030700110020000000e00031
:1023200004003a00020037008900780001003700fd
:102330008000eb00010078004f04be000080fa002e
:10234000000006000000fa00889fbe00000478002c
:102350008101780082047800600890000000e000ad
:102360001e003200380090008810900001004000ec
:102370003004980098009000810f5000020039004e
:102380001800780030049800680890000000e90008
:10239000600c9800660044009000780008119000de
:1023a0000300780076f807001900e0000a003a0000
:1023b000480090000000e000070032006800440080
:1023c000900307000000e00003003200100020002e
:1023d000800c780001003700100020004f04be0080
:1023e0000080fa00000006000000fa002100200032
:1023f0005000200065fd0700f0e888008003eb0036
:102400000003eb008602780034002000860178008b
:1024100092062000816c280060222100c2fc070087
:102420008003eb000003eb00c5d121002400200055
:102430008601780092062000f16c2800603f2100a0
:10244000b9fc07000080fa00000006000600fa0050
:10245000889fbe008a9fbe008c9fbe000006eb00d6
:102460001d002000e20047006400470001087800da
:102470001c0798008c007800a00020000104dd00fb
:10248000f6fb070080047800f0e880008001eb0094
:10249000080178008e0078004dfe07000000e00083
:1024a000010032008de88800ecfb07008900500035
:1024b000810f5400010036008de888006f00440051
:1024c000808f5000010036008de888001e009000cb
:1024d0008000e80011079800e48f5000e6ff340008
:1024e0001c07980064004700900578001800200041
:1024f000f0e880008001eb00030178008b00780099
:102500009bfe0700e10f50000100320088e88800c0
:102510001e0090000000e80010079800e40f500033
:10252000f3ff34001c0798008c0078001a0020008c
:10253000a00020000104dd00c8fb07008004780033
:10254000f0e880008001eb00080178008b00780043
:1025500087fe07000000e000010032008ae88800e2
:10256000befb070089005000810f540001003600b7
:102570008ae888006f004400808f50000100360018
:102580008ae888001e0090008000e800110798008b
:10259000e48f5000e6ff34001a3def00e0e88000d1
:1025a00086fa0700d1e8800050052000808f500097
:1025b00006003200000478004001200055fb0700af
:1025c000d0e88000880f5000fbff3a004001200057
:1025d00050fb0700dce888001c079800180020006a
:1025e00059052000f0e880008001eb00030178002d
:1025f0008e007800f6fd0700e10f50000100320068
:1026000088e88800f0e880008001eb000301780092
:102610008b00780056fe0700e10f500001003200e9
:1026200088e88800d0e88000890f500001003a0057
:1026300088e88800e0e8800051002000ecf90700fd
:10264000d0e88000890f500001003a0088e8880037
:10265000e0e8800021002000e5f907001e0090005e
:102660000000e80010079800e40f5000ddff340080
:10267000d1e8800050052000808f50000600320015
:10268000000478004001200022fb0700d0e8800011
:10269000880f5000fbff3a00400120001dfb07009f
:1026a000dce888001c07980018002000f0e8800093
:1026b0008001eb00030178008e007800c4fd070064
:1026c000e10f50000100320088e888001e009000f1
:1026d0000000e80010079800e40f5000f3ff3400fa
:1026e000e0e8800035fa0700d1e8800050052000be
:1026f000808f500006003200000478004001200066
:1027000004fb0700d0e88000880f5000fbff3a0070
:1027100040012000fffa0700dce888001c07980051
:102720001800200059052000f0e880008001eb002f
:10273000030178008b0078000dfe0700e10f5000c8
:102740000100320088e88800f0e880008001eb009a
:10275000030178008e0078009dfd0700e10f500016
:102760000100320088e88800d0e88000890f50001e
:1027700001003a0088e88800e0e88000510020006d
:102780009bf90700d0e88000890f500001003a0053
:1027900088e88800e0e880002100200094f9070024
:1027a0001e0090000000e80010079800e40f5000a1
:1027b000ddff3400d1e8800050052000808f5000fc
:1027c000060032000004780040012000d1fa070022
:1027d000d0e88000880f5000fbff3a004001200045
:1027e000ccfa0700143dec0021ff37000200fa008c
:1027f000889fbe008a9fbe008005eb00590520001f
:102800001a0020000000eb00b8f9070013fb0700d6
:10281000000478000b0f7800d9e88800f0e8800009
:102820008b017800f20a20008e007800d0fd0700ae
:102830000000e000010032008ae8880007fb070082
:1028400088005000e00a2000808f5000030036000e
:10285000e00b2000808f5000010036008ae88800dd
:10286000d9e888000000eb00a0f90700fbfa070098
:1028700000047800d9e88800f0e880008001eb00cf
:10288000f20a20008e00780051fd07000000e000f1
:10289000010032008ae88800f0fa07008800500042
:1028a000e00a2000808f500003003600e00b20007b
:1028b000808f5000010036008ae88800d9e888003f
:1028c000123dec00cfff37000000fa00a1e88000c5
:1028d0000041eb00c0e88000808f500001003a000a
:1028e00012c0b300024078000004a2000081fb0087
:1028f00091e88000b0e88000808f500001003a002d
:102900000001eb0080e88000e10f500001003a0078
:102910000001eb0090e88000b0e88800a0e88000ab
:10292000c0e88800020078000080fa00000006007d
:102930000000fa000000e000270034008000eb00f7
:102940000000000000000000000000000000000087
:102950000000000000000000000000000000000077
:102960000000000000000000000000000000000067
:102970000000000000000000000000000000000057
:102980000000000000000000000000000000000047
:102990000000000000000000000000000000000037
:1029a0000000000000000000000000000000000027
:1029b0000000000000000000000000000000000017
:1029c0000000000000000000000000008100e8009e
:1029d000810f5000daff3a000080fa000000060084
:1029e0000000fa00889fbe00800478000000e0002c
:1029f000060034000004eb00803e2000ccff0700fe
:102a00000804e800888f5400fbff3a004f04be0022
:102a10000080fa00000006000000fa004c00dd0013
:102a2000ca22b7000080fa00000006000000fa0089
:102a30004c00dd00f1ff200001007000ca22b6004a
:102a40000080fa00000006000000fa000000eb0021
:102a5000f1ff0700ca82a80080022000b4ff07002f
:102a6000ca82a9000080eb00f0ff070010002000e0
:102a7000e9ff0700ca82a80020002000d8ff070055
:102a8000ca82a900e0ff2f00e8ff07000080fa00db
:102a9000000006000000fa00889fbe008004fb00d2
:102aa00044ccde0008007800dbff0700cac2a800a3
:102ab000100020009eff0700ca82a80080022000ac
:102ac0009bff0700ca82a900080078000080ea0086
:102ad0008180ea00d5ff07006f8464000800780059
:102ae000cdff07001000200091ff0700ca82a80058
:102af000800220008eff0700ca82a900cac2a90076
:102b0000080078000080ea008180ea00c7ff070023
:102b10008002200086ff07004f04be000080fa00fc
:102b2000000006000000fa00889fbe00c1cfb3007d
:102b300009fc2f00e20f50001100320003003c009e
:102b4000e10f500009003a000b00370091cfb300ad
:102b500049f92f00e30f500009003200d1cfb30034
:102b600049fd2f00e40f5000050032008040eb00cb
:102b70008004eb000200370081cfb30009f82f007a
:102b80000104fb0008007800a3ff0700ca82a80028
:102b90004001200066ff0700ca82a90008007800f3
:102ba0000080ea008180ea00a0ff07006f846400d3
:102bb0000800780098ff0700ca82a80040012000a2
:102bc0005bff0700ca82a900080078000080ea00c5
:102bd0008180ea0095ff07004f04be000080fa00e4
:102be000000006000000fa00cae2a80080022000ef
:102bf0007bff07002000200087ff0700ca82a80093
:102c0000800220004aff0700ca82a900d0ff2f00df
:102c100086ff0700200020007fff0700ca82a8006f
:102c20008002200042ff0700ca82a900d0ff2f00c7
:102c30007eff07008000200077ff0700ca82a800ff
:102c4000800220003aff0700ca82a90070ff2f000f
:102c500076ff07000000eb006fff0700ca82a800a4
:102c60008002200032ff0700ca82a9000080eb002a
:102c70006eff0700e000200067ff0700ca82a8007f
:102c8000800220002aff0700ca82a90010ff2f003f
:102c900066ff07006cff07000000eb005eff070007
:102ca000ca82a8008002200021ff0700ca82a90072
:102cb0000080eb005dff07006000200056ff07006a
:102cc000ca82a8008002200019ff0700ca82a9005a
:102cd00090ff2f0055ff07002000200040ff070055
:102ce0000080fa00000006000000fa00889fbe0085
:102cf0008a9fbe0080057800000578008004eb0004
:102d00000300370068c07d0062ff07008904e80007
:102d1000090478000a0078003af60700890f50008d
:102d2000f8ff3e004f05be004f04be000080fa00d1
:102d3000000006000000fa00889fbe0002ccb3002d
:102d4000e20f50000d00320003003c00e10f500084
:102d500007003a000800370042c9b300e30f5000f3
:102d60000600320042cdb300e40f500003003200f1
:102d70000041eb000100370002c8b30001444100ec
:102d80000844e9000804fb00c4c4de000900780020
:102d900021ff0700ca82a80040002000e4fe0700cf
:102da000ca82a900090078000080ea008180ea0058
:102db0001eff07006f0464000800780016ff07007c
:102dc000ca82a80040002000d9fe0700ca82a900dc
:102dd000080078000080ea008180ea0013ff070005
:102de0004f04be000080fa00000006000000fa0058
:102df000881f7800880020000000e00004003200f6
:102e00000004eb00e10f500001003a00a800200090
:102e10000800780000ff0700ca82a8008002200096
:102e2000c3fe0700ca82a900080078000080ea00fb
:102e30008180ea00fdfe070080022000bcfe070042
:102e40004f0478000080fa00000006000000fa003d
:102e5000889fbe000001780081047800e0e58000d2
:102e6000000441003c9dec00ee040700e0e9800016
:102e700018009800e0e58000800f54000500310044
:102e8000e1e980008180e80060e68000cd04070071
:102e900004003700e1e980008180e80070e68000ee
:102ea000c80407000900e00004003200e1e98000e6
:102eb000ec80400009007800c20407004f04be0007
:102ec0000080fa00000006000000fa00881f780069
:102ed000c21ce2001a00320042a0a80010e68000e6
:102ee0000000e00002003a00000478000200370011
:102ef00040e68000300490006c004400c9040700e4
:102f000042a0a9000880e800c6040700b8089000a5
:102f1000d0e58000808f500001003600d1e58800a8
:102f20008880e800380990006a11b90040ce21007d
:102f30000200400095040700c21ce200e6ff3a00d0
:102f400046f9070001e6800001005000f0e5880026
:102f50002e003700e1e580008100e800e1e588000f
:102f60000000e900f0e588000100e00004003a00fc
:102f700070e6800062e6800072e6880060e6880005
:102f800070e680001000e0004e003a001f0037009d
:102f900098009000e0e58000808f50001b003e000c
:102fa00042a0a8000880e8009e04070028089000be
:102fb0000000e000020032006c00440099040700a9
:102fc00042a0a900b8089000d0e58000808f500092
:102fd00001003600d1e588008880e80038099000bb
:102fe0006a11b90040ce21000200400067040700ca
:102ff00070e680001000e000040032003000900015
:10300000300490000800e000e1ff3a00f0e58000a5
:103010000000e000cfff3a00e0e5800000e6880015
:10302000d4e580006a20b90042ce21008000410032
:103030001100e0001b0032000b0037000201e80025
:103040006a005000840f510002003a00d3e5880066
:10305000240037008301e900800078001000e000c0
:10306000f6ff3200d3e588001100900010019000b7
:103070009200980064804000800f510002003a00e6
:103080001201900092009800110090003000900012
:10309000e0e9880010017800c008900002000100fb
:1030a000100037000400e0000e0032006a20b90072
:1030b000a2cd210000004100840178000001eb0056
:1030c000e4ff370030009000300490000800e0007a
:1030d000ceff320018009000808f5000cbff3900e7
:1030e000afff37004f0478000080fa0000000600b0
:1030f0000000fa00889fbe008a9fbe008c9fbe0021
:10310000800678000104780002067800c0012000e3
:1031100073050700800478000080eb000900e000e0
:10312000330032003c1de20012003a00e9e9880059
:103130004ace21008bcf21000a0078000504070049
:103140006a0545008a8f5500fbff3a00a0cd21009b
:103150000004070000cd2100fe03070020cc210061
:10316000fc030700a0cd210070e6880000cd2100ff
:1031700060e68800e10f54000300360018002000cc
:103180003b00200001003700e40514000000eb00c4
:10319000d00c9800b80c9800cc0c98000905780069
:1031a0000d1d78000a007800f30307006c844400ca
:1031b00008007800f0030700c9049800990c9800f3
:1031c0000b0c7800b9089000d0e58000808f50008b
:1031d00001003600d1e588006a09b90040ce21001f
:1031e000020040008a007800e80307001000200079
:1031f0004f06be004f05be004f04be000080fa001f
:10320000000006000000fa00889fbe0090007800d1
:103210000100e00002003a0081047800020037005b
:1032200030009000b00490006c84440008007800e6
:10323000fc0307008800780020cc2100d30307009e
:10324000b9089000e0e98000300890000001eb0030
:10325000808f500001003900120020000200780029
:103260004f04be000080fa00000006000000fa00d3
:10327000881f78008a9fbe000005be000204780007
:10328000c922a800cb02a8003000200040368800e8
:1032900090002000203588001100200002007800f6
:1032a000baf9070090e988001100200008007800b2
:1032b000b6f9070080e988002062a9002002a90071
:1032c00090cfb3002062b60020a2a90020c2a900be
:1032d00020e2a900c0cfb3002162b6002182a9007c
:1032e00021a2a90021e2a800e00f5500e08f5d00b7
:1032f000030035000a00be00e8f4070009003700ab
:1033000061006500010020008b01d1000a81d3001b
:103310000200700083807000e0f407000001be002e
:103320000af50700020020000318240064f50700d6
:103330000001be000068290081c1240094f5070047
:103340000200200003f02300fff40700d2f507007d
:1033500040118800f0c3b3002262b6002342a800e7
:1033600023c2a90023a2a90023e2a90042a0a80029
:103370008560a9008580a900a9c0bf00f1c8b3007d
:10338000014060000044a000a9e0b700aac0bf004f
:1033900081cfb300014060000004a000aae0b700a4
:1033a0009580a8009560a80022c2bf000008a30075
:1033b000040032003011800022c2bf000008a300c8
:1033c000fcff3a001000200070e988000000eb00cc
:1033d0004f05be004f0478000080fa000000060090
:1033e0000000fa0090e980008001eb0078fa070005
:1033f000800078000000ea00010070004f00de004d
:103400000080fa00000006000200fa00014f780078
:1034100080e980008001eb008e007800d4fa07007c
:103420008000eb00e10f500006003a001100200080
:103430002e1de200030032002e3def008580a80023
:1034400011002000010078000080fa000000060052
:103450000000fa000080fa00000006003600f800c4
:10346000809fbe00829fbe00849fbe00869fbe00dc
:10347000881f78003400f80000002000a0018800b8
:103480000400fa000000eb00100798008560a90016
:1034900022c2bf000008a3000b0032000e04780017
:1034a00030118000004f780090e980008001eb002f
:1034b0000e81e80088007800b2f9070022c2bf0040
:1034c0000008a300f6ff3a001e0090000000e00094
:1034d0000300320034210200000000000000000060
:1034e0000080fa003400f9004f0478004f03be005a
:1034f0004f02be004f01be004f00be003600f90073
:10350000004006003600f800809fbe00829fbe008b
:10351000849fbe00869fbe003400f800000020009b
:10352000a00188000400fa000000eb0010079800da
:103530008580a90023c2bf000018a3000e003a0036
:1035400080e980000e81e8008e007800c7f907004e
:10355000e10f500006003a001e00fb002011880019
:1035600023c2bf000018a30003003a00f4ff370095
:103570001000200070e988001e0090000000e000ac
:1035800003003200342102000000000000000000af
:103590000080fa003400f9004f03be004f02be0065
:1035a0004f01be004f00be003600f900004006008b
:1035b0000000fa00889fbe008004780001047800b3
:1035c000914078000104e000060032000001eb00a9
:1035d000090078008cff0700d84078000104e00063
:1035e000faff3a004f04be000080fa000000060017
:1035f0000000fa00889fbe008a9fbe008c1f7800e2
:103600000006780060002000350407008004780080
:103610002100200010002000dcf80700800c78005a
:103620008b3e20009b049800e0cf2100a00498006e
:10363000600020002a0407000005780019087800bf
:103640000004eb001800980080cf210020059800ae
:103650008003eb0008037800880278000c027800f1
:103660008901780092062000e165280000c1210050
:103670002df807008003eb0008037800880278002b
:10368000080278008a01780092062000616628000e
:1036900020be210024f8070060002000100407006d
:1036a000800478002100200010002000b7f80700f7
:1036b000800c780098049800a0cf2100a004980006
:1036c0006000200006040700000578001908780053
:1036d0001b00980000d02100200598008003eb001b
:1036e00008037800880278000802780089017800d1
:1036f00092062000e166280000c121000af80700b8
:103700008003eb0008037800880278000c02780040
:103710008a017800920620006167280020be2100ff
:1037200001f8070060002000ed0307008004780026
:10373000210020005000200094f80700800c780041
:103740009b049800c0cf2100a004980060002000d6
:10375000e303070000057800190878001b009800b3
:1037600020d02100200598008003eb00080378009a
:10377000880278000802780089017800920620000b
:10378000e167280020be2100e7f707008003eb0077
:103790000803780088027800080278008a0178001f
:1037a000920620006168280000c12100def70700b2
:1037b0004f0678004f05be004f04be000080fa009f
:1037c000000006000200fa00889fbe008a1f7800f1
:1037d0008000eb00010f7800000478000e057800ef
:1037e00081047800010037001900200018019000c2
:1037f000180078008001eb008a007800dcf90700ef
:10380000e10f5000f8ff3a000900e00002003a0022
:10381000280090001008e8001e0fe800f3ff3700b2
:103820000200fa00889fbe008a1f7800000478001a
:103830008004eb000905780002003700800478005e
:103840001a00200018019000180078008001eb0099
:103850008e0078005ef90700e10f5000f9ff3a0092
:103860001e007800808f5400f4ff3a000a00e00048
:1038700002003a00280090001008e8008904e800df
:10388000f0ff37000000fa00170020008000eb0076
:10389000a4d0210043d02100e6cf210085cf210014
:1038a0000180400060007b0004017800940f50000c
:1038b00001003a008003eb000180400060097b00ba
:1038c00060807a0003017800930f500001003a00f5
:1038d0008003eb000180400060897a008100e800ed
:1038e0000482e8008381e800e38f5000ecff3a0097
:1038f000070078000080fa00000006000000fa00cf
:10390000889fbe0080047800e80f50000100360058
:103910008900200021002000100020001bf8070073
:1039200000ea88000000e0000e003a0010003700b6
:103930000004eb00080178008000eb00e0cb2100e0
:10394000ebfd07000804e800888f5400f9ff3a00f7
:103950000001eb001100200060d22100e4fd07000f
:10396000030037000900e000f9ff3200f0ff3700e4
:103970004f04be000080fa00000006000200fa00ba
:10398000881f7800010f780000047800d0089000ac
:1039900000102000808f50001300320003003e0012
:1039a0000100e00007003200250037001010200061
:1039b000808f50001800320073004000808f50004c
:1039c0001f003a0000ea80000001eb008e00780042
:1039d000d3f90700e40f400007003a000010200070
:1039e000500c98001600370000ea80000001eb0040
:1039f0008e007800caf90700e50f400003003a0086
:103a000010102000500c98000d003700e10f5000fe
:103a1000010032003e3def001e0078000000400033
:103a2000816b2800608078000000e0000200320016
:103a30008000eb0005fd070040112000500c9800ad
:103a40004f0478000080fa00000006000200fa002f
:103a5000881f780000047800d0089000001420002f
:103a6000808f50000e0032000000e800808f500070
:103a7000180032000100e00019003a0000ea80005e
:103a80000081eb008e007800d5f90700e40f4000bc
:103a900007003a0000142000500c98001000370076
:103aa00000ea80000001eb008e007800ccf90700ee
:103ab000e50f400003003a0010142000500c98005d
:103ac00007003700e10f5000020032003e3def00da
:103ad000eaff37001e00780081020700e7ff370089
:103ae0004f0478000080fa00000006000000fa0091
:103af000f0e980000080fa00000006000000fa00f3
:103b0000881f7800000478000202be0051e9880096
:103b1000820120000400be00d4fd07008003eb00fa
:103b20000003eb00860278000802e90086017800b5
:103b300092062000616d280080db2100faf6070064
:103b40008003eb000003eb00860278000802780097
:103b50008601780092062000c16d280040df210018
:103b6000f1f607004f0478000080fa00000006001c
:103b70000000fa00889fbe0099c5b30018c4b300c6
:103b800060e980000001eb00884078001efe07001d
:103b9000e10f500002003a0050e980005002070097
:103ba0000844e800894f5400f5ff3a0050e98000ce
:103bb0008000eb003102070028f607006300400098
:103bc00062092000110009000280d80010032000c3
:103bd000808f500001003e0021032000010078008a
:103be000ccf50700e5ff37000200fa00889fbe0011
:103bf0008a9fbe008c1f78000005eb000a06780043
:103c000099c5b3008bc5b30018c4b30060e9800048
:103c10000081eb008e007800f1fd07000000e0005d
:103c2000040032009e4f14000b003a002a1dec00e5
:103c30002b0207000844e800894f5400f3ff3a00c4
:103c40002a1dec008000eb000c020700e10f55007c
:103c50000c003a00060037001a002000f8ff370079
:103c600060e980000081eb008e007800dcfd070039
:103c70009ecf1500faff3a000c06e8000005eb00a5
:103c8000e1ff3700e10f5600dfff3c00283dec006c
:103c9000ddff37000000fa0041e980000000eb0082
:103ca00040e988000100e00001003a0010c0b300c4
:103cb0000004a2000080fb000080fa000000060063
:103cc0000000fa00010878008000eb001100980065
:103cd0002100980032009800e8004000806228002f
:103ce000e2652800b0187800800f5100fdff3a000f
:103cf000200280008008780034c0bf000080fb00f4
:103d0000900098000000eb00a00098006680400042
:103d10000080fa00000006000000fa000000eb003e
:103d200020088800000888008038210010088800da
:103d3000a5c0bf00f1c8b300014060000044a0006e
:103d4000a5e0b7008460a9009460a8000481a800e1
:103d500004a1a90005e1a800c0e98000900778004f
:103d60004f007800d0e988003400f9004400f900e1
:103d70004000f9003e00f9003c00f9003a00f9006b
:103d80003800f9002c00f9002a00f9002800f90099
:103d90002600f9002400f9002200f9003200f900a1
:103da0003600f9004f0778004f06be004f05be00f1
:103db0004f04be004f03be004f02be004f01be00c5
:103dc0004f00be004200f900000006001000200075
:103dd0000080fa00000006000000fa000080fa00ef
:103de000000006000000fa0042a0a8003a3dec00e6
:103df0000080fa00000006000000fa003a1ded0005
:103e0000d0e9880001003a0042a0a9000080fa0031
:103e1000000006003600f800809fbe00829fbe00b2
:103e2000849fbe00869fbe003400f8000000200082
:103e3000a00188000000fa008460a900b4f4070023
:103e40003421020000000000000000000080fa00a1
:103e50003400f9004f03be004f02be004f01be0008
:103e60004f00be003600f900004006000000fa00d6
:103e70000001eb00e16828000000eb00ccfd07002a
:103e8000a00f200023f50700f9ff37000200fa0019
:103e9000261dec0030e9880021d221005c000700db
:103ea0000001eb0021d221000000eb00c0fd070063
:103eb0000081eb008e0078000000eb0048fd070059
:103ec000f3ff37000000fa0090022000303a88002b
:103ed000764040004467b60000ceb3004467b600a9
:103ee00012002000a1092000800720003374200068
:103ef0008049780081497800824978007105200066
:103f000060042000237420008049780081497800f3
:103f10008249780043c7bf000047b200f04f50000d
:103f2000fcff3a0042c7bf000058a300fdff32006b
:103f30000080fa00000006000000fa002ca3ef0049
:103f400044010700dfff070026fb070010002000e8
:103f5000f4fa07001069280063fb07002000200026
:103f6000f0fa0700806928005ffb0700d1002000fd
:103f7000100020006ffb0700f06928005afb0700c3
:103f8000e1002000200020006afb0700806a280072
:103f900055fb0700a200200000582200010020006d
:103fa000b2fc0700f40107008003eb000003eb0004
:103fb00086027800340020008601780092062000f6
:103fc000016b280060f32100d7f507008003eb00a8
:103fd0000003eb00860278002400200086017800b0
:103fe00092062000416b280060f42100cef5070006
:103ff00054f607000000eb000080fa000000060005
:104000000000fa00b0fb07000080fa000000060084
:10401000881f7800801f78000001eb000200e60096
:104020000000ea000002eb00530020000004eb0057
:104030000e0008001900000000f0a70061027200e5
:104040006f03620003b0e600630242004419dd0022
:10405000050f20000503620002b0e6000403b00073
:104060004411dd00c42add000503620002b0e60051
:104070000430b00007002300c42add0005036200fd
:104080004c33de0003b0e600070242004100dd00d1
:104090004f21de004144dd00020474004122dd00b6
:1040a00000f0a700610272004f0078008002eb0070
:1040b0008001eb0003c0e7000500370003a0e70024
:1040c0000300370002032000825878001d003700eb
:1040d0000003eb00d30220000600e60083587800be
:1040e0006f0164000610e700030037000203b00010
:1040f00082587800150020000003eb000300080040
:104100000f00000002002f0082016200cc19de00c7
:104110000618e70004003700030178000203b0002e
:1041200082587800150020006128e10004003a0060
:104130000698e7000200370002032000825878004a
:104140004422dd008001eb00834878004f047800b2
:10415000000006000000fa00e40040001100980092
:104160008088eb0031009800410098000008eb00c7
:104170000080fa00000006000000fa008000eb005a
:10418000410098000080fa00000006000000fa00dc
:10419000900190001301900092009800100190008f
:1041a000a20098001301900021019800910198004d
:1041b00011009800c00098001008e8000080fa0084
:1041c000000006000000fa0000027800910178006b
:1041d000e18f410002003a004001900008003700e2
:1041e0006401400012009000908f510004003900db
:1041f0001201900012009000908f5100fcff3100de
:10420000120090009000980021009800a2009800f1
:1042100011019800c4009800140ae8000080fa0018
:10422000000006000000fa008000780010009000f6
:104230002101900022009800a101900090019800b7
:104240004101900012009000810f500001003a00df
:10425000130198000000eb00c00098001209e9006b
:104260000080fa00000006004200f800801f78007d
:104270000002200010028800811f7800829fbe008b
:10428000849fbe00869fbe00889fbe008a9fbe009e
:104290008c9fbe008e1f78003600f8003200f800b8
:1042a0002200f8002400f8002600f8002800f8009a
:1042b0002a00f8002c00f8003800f8003a00f80056
:1042c0003c00f8003e00f8004000f8004400f80010
:1042d0003400f800d0e98000801f7800c0e9800039
:1042e0000f087800480a020000000000c0e98000c2
:1042f000900778004f007800d0e988003400f9007a
:104300004400f9004000f9003e00f9003c00f900cb
:104310003a00f9003800f9002c00f9002a00f900f1
:104320002800f9002600f9002400f9002200f90015
:104330003200f9003600f9004f0778004f06be0042
:104340004f05be004f04be004f03be004f02be002b
:104350004f01be004f00be004200f9000000060001
:104360000000fa008003eb000003eb0086027800f7
:104370000002780043d4210092062000216e28001c
:10438000801c2200e8f407000080fa00000006000c
:104390000400fa00889fbe008a1f7800000578009c
:1043a0008004eb00d8ff2f00010037001900200027
:1043b000b007200001002000008fbe0070442900db
:1043c000310020001e0f40005e9748001e00be0016
:1043d0000801b800008251000888b900800142003d
:1043e000028fbe001e00be007200200003002000ed
:1043f0008bf00700008fbe00b0712700e1ff2f0097
:10440000be0f1000ae8f1800e8ff3a000900e00070
:10441000e7ff3a0073fe070010002000000d78004f
:1044200075fe0700e2ff37000000fa0021ea800075
:104430000000eb0020ea88000100e00001003a00e3
:1044400010c0b3000004a2000080fb000080fa004e
:10445000000006000000fa008000eb004103880025
:104460005103880040002000401688005116880043
:1044700011ea88000080fa00000006000000fa003f
:10448000881f7800120020000014dd000100e00009
:104490000700320053fe070008007800421db700f5
:1044a00010ea88005016880053fe07000900370004
:1044b0004cfe0700080078000080ea008180ea00d6
:1044c00012ea80000001610012ea8800521688009a
:1044d00049fe07004f0478000080fa000000060043
:1044e0000000fa00881f780011002000000cdd0099
:1044f0003cfe070012ea8000020064000700320060
:10450000080078000080ea008180ea000000610075
:1045100010ea88005016880003003700020074007b
:1045200010ea88005016880033fe07004f04780018
:084530000080fa000000060003
:020000040000fa
:10453800201d00000800000000000000381d0000d9
:10454800020000000200000000000000521c0000f1
:1045580068000000000000003a1d00000200000092
:1045680002000000ef0000005008000002140000e4
:1045780000000000f81c0000180000000000000007
:104588003c1d0000020000000200000000000000c6
:10459800ba1c00003e000000000000003e1d0000a4
:1045a800020000000200000001000000401d0000a1
:1045b8000200000000000000421d00000200000090
:1045c80000000000101d00001000000000000000a6
:1045d800441d00000200000000000000461d00000d
:1045e800020000000200000000000000341d00006e
:1045f8000400000000000000281d00000600000064
:10460800000000002e1d0000060000000000000051
:04461800000000009e
:020000040000fa
:10461c000000fa008000eb0081088800f108880097
:10462c0031088800a10888006101b80000a02500ad
:10463c002126200006f00700600888001aa1ef0070
:10464c00a7c0bf00f1c8b300014060000054a00037
:10465c00a7e0b70084e0a90094e0a80011e1a8004d
:10466c001fe1a8000080fa0000000600809fbe0039
:10467c00821f78003400f80000002000a0018800a0
:10468c000000fa00a2088000a0e98000e40f5000ae
:10469c0007003600b0e980008000510030ea80004d
:1046ac00808f50000400360031ea88000200370089
:1046bc000000e800a0e98800b2e9880084e0a900c5
:1046cc000080fa003400f9004f0178004f00be0062
:1046dc00004006000000fa00881f780000047800f3
:1046ec000008a300020032000000a1000084e800d2
:1046fc00b8f107008242800082004400f03f2100a4
:10470c00808f500006003e00810f510004003100e4
:10471c002085200000044100814288000100370000
:10472c000004eb00b4f20700080078004f04780096
:10473c000080fa00000006000000fa000080fa0079
:10474c00000006000000fa005028ef000080fa007c
:10475c00000006000000fa000040210081428000a9
:10476c00010050000080fa00000006000000fa0072
:10477c0000402000c822b600f0c0b300c061b600f3
:10478c00c0cfb300c061b600c3e1a900000028008f
:10479c00c221b60000532700d00e880000e224008e
:1047ac00200e8800c941a800c8c1a800c841a900b2
:1047bc00ca01a80000cfb300cb61b600c1e1a800cc
:0847cc000080fa000000060065
:020000040000fa
:0447d4000000fe00e3
:00000001FF
